{"abi":[{"inputs":[],"stateMutability":"nonpayable","type":"constructor"},{"inputs":[{"internalType":"uint256","name":"min","type":"uint256"}],"name":"createCampaign","outputs":[],"stateMutability":"nonpayable","type":"function"},{"inputs":[{"internalType":"uint256","name":"","type":"uint256"}],"name":"createdCampaigns","outputs":[{"internalType":"address","name":"","type":"address"}],"stateMutability":"view","type":"function"},{"inputs":[],"name":"getCampaigns","outputs":[{"internalType":"address[]","name":"","type":"address[]"}],"stateMutability":"view","type":"function"}],"devdoc":{"kind":"dev","methods":{},"version":1},"evm":{"assembly":"    /* \"Campaign.sol\":61:443  contract CampaignFactory {... */\n  mstore(0x40, 0x80)\n    /* \"Campaign.sol\":135:151  constructor() {} */\n  callvalue\n  dup1\n  iszero\n  tag_1\n  jumpi\n  0x00\n  dup1\n  revert\ntag_1:\n  pop\n    /* \"Campaign.sol\":61:443  contract CampaignFactory {... */\n  dataSize(sub_0)\n  dup1\n  dataOffset(sub_0)\n  0x00\n  codecopy\n  0x00\n  return\nstop\n\nsub_0: assembly {\n        /* \"Campaign.sol\":61:443  contract CampaignFactory {... */\n      mstore(0x40, 0x80)\n      callvalue\n      dup1\n      iszero\n      tag_1\n      jumpi\n      0x00\n      dup1\n      revert\n    tag_1:\n      pop\n      jumpi(tag_2, lt(calldatasize, 0x04))\n      shr(0xe0, calldataload(0x00))\n      dup1\n      0x6ffbea13\n      eq\n      tag_3\n      jumpi\n      dup1\n      0xa3303a75\n      eq\n      tag_4\n      jumpi\n      dup1\n      0xa6b03633\n      eq\n      tag_5\n      jumpi\n    tag_2:\n      0x00\n      dup1\n      revert\n        /* \"Campaign.sol\":93:126  address[] public createdCampaigns */\n    tag_3:\n      tag_6\n      0x04\n      dup1\n      calldatasize\n      sub\n      dup2\n      add\n      swap1\n      tag_7\n      swap2\n      swap1\n      tag_8\n      jump\t// in\n    tag_7:\n      tag_9\n      jump\t// in\n    tag_6:\n      mload(0x40)\n      tag_10\n      swap2\n      swap1\n      tag_11\n      jump\t// in\n    tag_10:\n      mload(0x40)\n      dup1\n      swap2\n      sub\n      swap1\n      return\n        /* \"Campaign.sol\":159:327  function createCampaign(uint256 min) public {... */\n    tag_4:\n      tag_12\n      0x04\n      dup1\n      calldatasize\n      sub\n      dup2\n      add\n      swap1\n      tag_13\n      swap2\n      swap1\n      tag_8\n      jump\t// in\n    tag_13:\n      tag_14\n      jump\t// in\n    tag_12:\n      stop\n        /* \"Campaign.sol\":335:440  function getCampaigns() public view returns (address[] memory) {... */\n    tag_5:\n      tag_15\n      tag_16\n      jump\t// in\n    tag_15:\n      mload(0x40)\n      tag_17\n      swap2\n      swap1\n      tag_18\n      jump\t// in\n    tag_17:\n      mload(0x40)\n      dup1\n      swap2\n      sub\n      swap1\n      return\n        /* \"Campaign.sol\":93:126  address[] public createdCampaigns */\n    tag_9:\n      0x00\n      dup2\n      dup2\n      sload\n      dup2\n      lt\n      tag_19\n      jumpi\n      0x00\n      dup1\n      revert\n    tag_19:\n      swap1\n      0x00\n      mstore\n      keccak256(0x00, 0x20)\n      add\n      0x00\n      swap2\n      pop\n      sload\n      swap1\n      0x0100\n      exp\n      swap1\n      div\n      0xffffffffffffffffffffffffffffffffffffffff\n      and\n      dup2\n      jump\t// out\n        /* \"Campaign.sol\":159:327  function createCampaign(uint256 min) public {... */\n    tag_14:\n        /* \"Campaign.sol\":214:233  address newCampaign */\n      0x00\n        /* \"Campaign.sol\":257:260  min */\n      dup2\n        /* \"Campaign.sol\":262:272  msg.sender */\n      caller\n        /* \"Campaign.sol\":244:273  new Campaign(min, msg.sender) */\n      mload(0x40)\n      tag_22\n      swap1\n      tag_23\n      jump\t// in\n    tag_22:\n      tag_24\n      swap3\n      swap2\n      swap1\n      tag_25\n      jump\t// in\n    tag_24:\n      mload(0x40)\n      dup1\n      swap2\n      sub\n      swap1\n      0x00\n      create\n      dup1\n      iszero\n      dup1\n      iszero\n      tag_26\n      jumpi\n      returndatasize\n      0x00\n      dup1\n      returndatacopy\n      revert(0x00, returndatasize)\n    tag_26:\n      pop\n        /* \"Campaign.sol\":214:274  address newCampaign = address(new Campaign(min, msg.sender)) */\n      swap1\n      pop\n        /* \"Campaign.sol\":285:301  createdCampaigns */\n      0x00\n        /* \"Campaign.sol\":307:318  newCampaign */\n      dup2\n        /* \"Campaign.sol\":285:319  createdCampaigns.push(newCampaign) */\n      swap1\n      dup1\n      0x01\n      dup2\n      sload\n      add\n      dup1\n      dup3\n      sstore\n      dup1\n      swap2\n      pop\n      pop\n      0x01\n      swap1\n      sub\n      swap1\n      0x00\n      mstore\n      keccak256(0x00, 0x20)\n      add\n      0x00\n      swap1\n      swap2\n      swap1\n      swap2\n      swap1\n      swap2\n      0x0100\n      exp\n      dup2\n      sload\n      dup2\n      0xffffffffffffffffffffffffffffffffffffffff\n      mul\n      not\n      and\n      swap1\n      dup4\n      0xffffffffffffffffffffffffffffffffffffffff\n      and\n      mul\n      or\n      swap1\n      sstore\n      pop\n        /* \"Campaign.sol\":203:327  {... */\n      pop\n        /* \"Campaign.sol\":159:327  function createCampaign(uint256 min) public {... */\n      pop\n      jump\t// out\n        /* \"Campaign.sol\":335:440  function getCampaigns() public view returns (address[] memory) {... */\n    tag_16:\n        /* \"Campaign.sol\":380:396  address[] memory */\n      0x60\n        /* \"Campaign.sol\":416:432  createdCampaigns */\n      0x00\n        /* \"Campaign.sol\":409:432  return createdCampaigns */\n      dup1\n      sload\n      dup1\n      0x20\n      mul\n      0x20\n      add\n      mload(0x40)\n      swap1\n      dup2\n      add\n      0x40\n      mstore\n      dup1\n      swap3\n      swap2\n      swap1\n      dup2\n      dup2\n      mstore\n      0x20\n      add\n      dup3\n      dup1\n      sload\n      dup1\n      iszero\n      tag_29\n      jumpi\n      0x20\n      mul\n      dup3\n      add\n      swap2\n      swap1\n      0x00\n      mstore\n      keccak256(0x00, 0x20)\n      swap1\n    tag_30:\n      dup2\n      0x00\n      swap1\n      sload\n      swap1\n      0x0100\n      exp\n      swap1\n      div\n      0xffffffffffffffffffffffffffffffffffffffff\n      and\n      0xffffffffffffffffffffffffffffffffffffffff\n      and\n      dup2\n      mstore\n      0x20\n      add\n      swap1\n      0x01\n      add\n      swap1\n      dup1\n      dup4\n      gt\n      tag_30\n      jumpi\n    tag_29:\n      pop\n      pop\n      pop\n      pop\n      pop\n      swap1\n      pop\n        /* \"Campaign.sol\":335:440  function getCampaigns() public view returns (address[] memory) {... */\n      swap1\n      jump\t// out\n    tag_23:\n      dataSize(sub_0)\n      dup1\n      dataOffset(sub_0)\n      dup4\n      codecopy\n      add\n      swap1\n      jump\t// out\n        /* \"#utility.yul\":88:205   */\n    tag_32:\n        /* \"#utility.yul\":197:198   */\n      0x00\n        /* \"#utility.yul\":194:195   */\n      dup1\n        /* \"#utility.yul\":187:199   */\n      revert\n        /* \"#utility.yul\":334:411   */\n    tag_34:\n        /* \"#utility.yul\":371:378   */\n      0x00\n        /* \"#utility.yul\":400:405   */\n      dup2\n        /* \"#utility.yul\":389:405   */\n      swap1\n      pop\n        /* \"#utility.yul\":334:411   */\n      swap2\n      swap1\n      pop\n      jump\t// out\n        /* \"#utility.yul\":417:539   */\n    tag_35:\n        /* \"#utility.yul\":490:514   */\n      tag_54\n        /* \"#utility.yul\":508:513   */\n      dup2\n        /* \"#utility.yul\":490:514   */\n      tag_34\n      jump\t// in\n    tag_54:\n        /* \"#utility.yul\":483:488   */\n      dup2\n        /* \"#utility.yul\":480:515   */\n      eq\n        /* \"#utility.yul\":470:533   */\n      tag_55\n      jumpi\n        /* \"#utility.yul\":529:530   */\n      0x00\n        /* \"#utility.yul\":526:527   */\n      dup1\n        /* \"#utility.yul\":519:531   */\n      revert\n        /* \"#utility.yul\":470:533   */\n    tag_55:\n        /* \"#utility.yul\":417:539   */\n      pop\n      jump\t// out\n        /* \"#utility.yul\":545:684   */\n    tag_36:\n        /* \"#utility.yul\":591:596   */\n      0x00\n        /* \"#utility.yul\":629:635   */\n      dup2\n        /* \"#utility.yul\":616:636   */\n      calldataload\n        /* \"#utility.yul\":607:636   */\n      swap1\n      pop\n        /* \"#utility.yul\":645:678   */\n      tag_57\n        /* \"#utility.yul\":672:677   */\n      dup2\n        /* \"#utility.yul\":645:678   */\n      tag_35\n      jump\t// in\n    tag_57:\n        /* \"#utility.yul\":545:684   */\n      swap3\n      swap2\n      pop\n      pop\n      jump\t// out\n        /* \"#utility.yul\":690:1019   */\n    tag_8:\n        /* \"#utility.yul\":749:755   */\n      0x00\n        /* \"#utility.yul\":798:800   */\n      0x20\n        /* \"#utility.yul\":786:795   */\n      dup3\n        /* \"#utility.yul\":777:784   */\n      dup5\n        /* \"#utility.yul\":773:796   */\n      sub\n        /* \"#utility.yul\":769:801   */\n      slt\n        /* \"#utility.yul\":766:885   */\n      iszero\n      tag_59\n      jumpi\n        /* \"#utility.yul\":804:883   */\n      tag_60\n      tag_32\n      jump\t// in\n    tag_60:\n        /* \"#utility.yul\":766:885   */\n    tag_59:\n        /* \"#utility.yul\":924:925   */\n      0x00\n        /* \"#utility.yul\":949:1002   */\n      tag_61\n        /* \"#utility.yul\":994:1001   */\n      dup5\n        /* \"#utility.yul\":985:991   */\n      dup3\n        /* \"#utility.yul\":974:983   */\n      dup6\n        /* \"#utility.yul\":970:992   */\n      add\n        /* \"#utility.yul\":949:1002   */\n      tag_36\n      jump\t// in\n    tag_61:\n        /* \"#utility.yul\":939:1002   */\n      swap2\n      pop\n        /* \"#utility.yul\":895:1012   */\n      pop\n        /* \"#utility.yul\":690:1019   */\n      swap3\n      swap2\n      pop\n      pop\n      jump\t// out\n        /* \"#utility.yul\":1025:1151   */\n    tag_37:\n        /* \"#utility.yul\":1062:1069   */\n      0x00\n        /* \"#utility.yul\":1102:1144   */\n      0xffffffffffffffffffffffffffffffffffffffff\n        /* \"#utility.yul\":1095:1100   */\n      dup3\n        /* \"#utility.yul\":1091:1145   */\n      and\n        /* \"#utility.yul\":1080:1145   */\n      swap1\n      pop\n        /* \"#utility.yul\":1025:1151   */\n      swap2\n      swap1\n      pop\n      jump\t// out\n        /* \"#utility.yul\":1157:1253   */\n    tag_38:\n        /* \"#utility.yul\":1194:1201   */\n      0x00\n        /* \"#utility.yul\":1223:1247   */\n      tag_64\n        /* \"#utility.yul\":1241:1246   */\n      dup3\n        /* \"#utility.yul\":1223:1247   */\n      tag_37\n      jump\t// in\n    tag_64:\n        /* \"#utility.yul\":1212:1247   */\n      swap1\n      pop\n        /* \"#utility.yul\":1157:1253   */\n      swap2\n      swap1\n      pop\n      jump\t// out\n        /* \"#utility.yul\":1259:1377   */\n    tag_39:\n        /* \"#utility.yul\":1346:1370   */\n      tag_66\n        /* \"#utility.yul\":1364:1369   */\n      dup2\n        /* \"#utility.yul\":1346:1370   */\n      tag_38\n      jump\t// in\n    tag_66:\n        /* \"#utility.yul\":1341:1344   */\n      dup3\n        /* \"#utility.yul\":1334:1371   */\n      mstore\n        /* \"#utility.yul\":1259:1377   */\n      pop\n      pop\n      jump\t// out\n        /* \"#utility.yul\":1383:1605   */\n    tag_11:\n        /* \"#utility.yul\":1476:1480   */\n      0x00\n        /* \"#utility.yul\":1514:1516   */\n      0x20\n        /* \"#utility.yul\":1503:1512   */\n      dup3\n        /* \"#utility.yul\":1499:1517   */\n      add\n        /* \"#utility.yul\":1491:1517   */\n      swap1\n      pop\n        /* \"#utility.yul\":1527:1598   */\n      tag_68\n        /* \"#utility.yul\":1595:1596   */\n      0x00\n        /* \"#utility.yul\":1584:1593   */\n      dup4\n        /* \"#utility.yul\":1580:1597   */\n      add\n        /* \"#utility.yul\":1571:1577   */\n      dup5\n        /* \"#utility.yul\":1527:1598   */\n      tag_39\n      jump\t// in\n    tag_68:\n        /* \"#utility.yul\":1383:1605   */\n      swap3\n      swap2\n      pop\n      pop\n      jump\t// out\n        /* \"#utility.yul\":1611:1725   */\n    tag_40:\n        /* \"#utility.yul\":1678:1684   */\n      0x00\n        /* \"#utility.yul\":1712:1717   */\n      dup2\n        /* \"#utility.yul\":1706:1718   */\n      mload\n        /* \"#utility.yul\":1696:1718   */\n      swap1\n      pop\n        /* \"#utility.yul\":1611:1725   */\n      swap2\n      swap1\n      pop\n      jump\t// out\n        /* \"#utility.yul\":1731:1915   */\n    tag_41:\n        /* \"#utility.yul\":1830:1841   */\n      0x00\n        /* \"#utility.yul\":1864:1870   */\n      dup3\n        /* \"#utility.yul\":1859:1862   */\n      dup3\n        /* \"#utility.yul\":1852:1871   */\n      mstore\n        /* \"#utility.yul\":1904:1908   */\n      0x20\n        /* \"#utility.yul\":1899:1902   */\n      dup3\n        /* \"#utility.yul\":1895:1909   */\n      add\n        /* \"#utility.yul\":1880:1909   */\n      swap1\n      pop\n        /* \"#utility.yul\":1731:1915   */\n      swap3\n      swap2\n      pop\n      pop\n      jump\t// out\n        /* \"#utility.yul\":1921:2053   */\n    tag_42:\n        /* \"#utility.yul\":1988:1992   */\n      0x00\n        /* \"#utility.yul\":2011:2014   */\n      dup2\n        /* \"#utility.yul\":2003:2014   */\n      swap1\n      pop\n        /* \"#utility.yul\":2041:2045   */\n      0x20\n        /* \"#utility.yul\":2036:2039   */\n      dup3\n        /* \"#utility.yul\":2032:2046   */\n      add\n        /* \"#utility.yul\":2024:2046   */\n      swap1\n      pop\n        /* \"#utility.yul\":1921:2053   */\n      swap2\n      swap1\n      pop\n      jump\t// out\n        /* \"#utility.yul\":2059:2167   */\n    tag_43:\n        /* \"#utility.yul\":2136:2160   */\n      tag_73\n        /* \"#utility.yul\":2154:2159   */\n      dup2\n        /* \"#utility.yul\":2136:2160   */\n      tag_38\n      jump\t// in\n    tag_73:\n        /* \"#utility.yul\":2131:2134   */\n      dup3\n        /* \"#utility.yul\":2124:2161   */\n      mstore\n        /* \"#utility.yul\":2059:2167   */\n      pop\n      pop\n      jump\t// out\n        /* \"#utility.yul\":2173:2352   */\n    tag_44:\n        /* \"#utility.yul\":2242:2252   */\n      0x00\n        /* \"#utility.yul\":2263:2309   */\n      tag_75\n        /* \"#utility.yul\":2305:2308   */\n      dup4\n        /* \"#utility.yul\":2297:2303   */\n      dup4\n        /* \"#utility.yul\":2263:2309   */\n      tag_43\n      jump\t// in\n    tag_75:\n        /* \"#utility.yul\":2341:2345   */\n      0x20\n        /* \"#utility.yul\":2336:2339   */\n      dup4\n        /* \"#utility.yul\":2332:2346   */\n      add\n        /* \"#utility.yul\":2318:2346   */\n      swap1\n      pop\n        /* \"#utility.yul\":2173:2352   */\n      swap3\n      swap2\n      pop\n      pop\n      jump\t// out\n        /* \"#utility.yul\":2358:2471   */\n    tag_45:\n        /* \"#utility.yul\":2428:2432   */\n      0x00\n        /* \"#utility.yul\":2460:2464   */\n      0x20\n        /* \"#utility.yul\":2455:2458   */\n      dup3\n        /* \"#utility.yul\":2451:2465   */\n      add\n        /* \"#utility.yul\":2443:2465   */\n      swap1\n      pop\n        /* \"#utility.yul\":2358:2471   */\n      swap2\n      swap1\n      pop\n      jump\t// out\n        /* \"#utility.yul\":2507:3239   */\n    tag_46:\n        /* \"#utility.yul\":2626:2629   */\n      0x00\n        /* \"#utility.yul\":2655:2709   */\n      tag_78\n        /* \"#utility.yul\":2703:2708   */\n      dup3\n        /* \"#utility.yul\":2655:2709   */\n      tag_40\n      jump\t// in\n    tag_78:\n        /* \"#utility.yul\":2725:2811   */\n      tag_79\n        /* \"#utility.yul\":2804:2810   */\n      dup2\n        /* \"#utility.yul\":2799:2802   */\n      dup6\n        /* \"#utility.yul\":2725:2811   */\n      tag_41\n      jump\t// in\n    tag_79:\n        /* \"#utility.yul\":2718:2811   */\n      swap4\n      pop\n        /* \"#utility.yul\":2835:2891   */\n      tag_80\n        /* \"#utility.yul\":2885:2890   */\n      dup4\n        /* \"#utility.yul\":2835:2891   */\n      tag_42\n      jump\t// in\n    tag_80:\n        /* \"#utility.yul\":2914:2921   */\n      dup1\n        /* \"#utility.yul\":2945:2946   */\n      0x00\n        /* \"#utility.yul\":2930:3214   */\n    tag_81:\n        /* \"#utility.yul\":2955:2961   */\n      dup4\n        /* \"#utility.yul\":2952:2953   */\n      dup2\n        /* \"#utility.yul\":2949:2962   */\n      lt\n        /* \"#utility.yul\":2930:3214   */\n      iszero\n      tag_83\n      jumpi\n        /* \"#utility.yul\":3031:3037   */\n      dup2\n        /* \"#utility.yul\":3025:3038   */\n      mload\n        /* \"#utility.yul\":3058:3121   */\n      tag_84\n        /* \"#utility.yul\":3117:3120   */\n      dup9\n        /* \"#utility.yul\":3102:3115   */\n      dup3\n        /* \"#utility.yul\":3058:3121   */\n      tag_44\n      jump\t// in\n    tag_84:\n        /* \"#utility.yul\":3051:3121   */\n      swap8\n      pop\n        /* \"#utility.yul\":3144:3204   */\n      tag_85\n        /* \"#utility.yul\":3197:3203   */\n      dup4\n        /* \"#utility.yul\":3144:3204   */\n      tag_45\n      jump\t// in\n    tag_85:\n        /* \"#utility.yul\":3134:3204   */\n      swap3\n      pop\n        /* \"#utility.yul\":2990:3214   */\n      pop\n        /* \"#utility.yul\":2977:2978   */\n      0x01\n        /* \"#utility.yul\":2974:2975   */\n      dup2\n        /* \"#utility.yul\":2970:2979   */\n      add\n        /* \"#utility.yul\":2965:2979   */\n      swap1\n      pop\n        /* \"#utility.yul\":2930:3214   */\n      jump(tag_81)\n    tag_83:\n        /* \"#utility.yul\":2934:2948   */\n      pop\n        /* \"#utility.yul\":3230:3233   */\n      dup6\n        /* \"#utility.yul\":3223:3233   */\n      swap4\n      pop\n        /* \"#utility.yul\":2631:3239   */\n      pop\n      pop\n      pop\n        /* \"#utility.yul\":2507:3239   */\n      swap3\n      swap2\n      pop\n      pop\n      jump\t// out\n        /* \"#utility.yul\":3245:3618   */\n    tag_18:\n        /* \"#utility.yul\":3388:3392   */\n      0x00\n        /* \"#utility.yul\":3426:3428   */\n      0x20\n        /* \"#utility.yul\":3415:3424   */\n      dup3\n        /* \"#utility.yul\":3411:3429   */\n      add\n        /* \"#utility.yul\":3403:3429   */\n      swap1\n      pop\n        /* \"#utility.yul\":3475:3484   */\n      dup2\n        /* \"#utility.yul\":3469:3473   */\n      dup2\n        /* \"#utility.yul\":3465:3485   */\n      sub\n        /* \"#utility.yul\":3461:3462   */\n      0x00\n        /* \"#utility.yul\":3450:3459   */\n      dup4\n        /* \"#utility.yul\":3446:3463   */\n      add\n        /* \"#utility.yul\":3439:3486   */\n      mstore\n        /* \"#utility.yul\":3503:3611   */\n      tag_87\n        /* \"#utility.yul\":3606:3610   */\n      dup2\n        /* \"#utility.yul\":3597:3603   */\n      dup5\n        /* \"#utility.yul\":3503:3611   */\n      tag_46\n      jump\t// in\n    tag_87:\n        /* \"#utility.yul\":3495:3611   */\n      swap1\n      pop\n        /* \"#utility.yul\":3245:3618   */\n      swap3\n      swap2\n      pop\n      pop\n      jump\t// out\n        /* \"#utility.yul\":3624:3742   */\n    tag_47:\n        /* \"#utility.yul\":3711:3735   */\n      tag_89\n        /* \"#utility.yul\":3729:3734   */\n      dup2\n        /* \"#utility.yul\":3711:3735   */\n      tag_34\n      jump\t// in\n    tag_89:\n        /* \"#utility.yul\":3706:3709   */\n      dup3\n        /* \"#utility.yul\":3699:3736   */\n      mstore\n        /* \"#utility.yul\":3624:3742   */\n      pop\n      pop\n      jump\t// out\n        /* \"#utility.yul\":3748:4080   */\n    tag_25:\n        /* \"#utility.yul\":3869:3873   */\n      0x00\n        /* \"#utility.yul\":3907:3909   */\n      0x40\n        /* \"#utility.yul\":3896:3905   */\n      dup3\n        /* \"#utility.yul\":3892:3910   */\n      add\n        /* \"#utility.yul\":3884:3910   */\n      swap1\n      pop\n        /* \"#utility.yul\":3920:3991   */\n      tag_91\n        /* \"#utility.yul\":3988:3989   */\n      0x00\n        /* \"#utility.yul\":3977:3986   */\n      dup4\n        /* \"#utility.yul\":3973:3990   */\n      add\n        /* \"#utility.yul\":3964:3970   */\n      dup6\n        /* \"#utility.yul\":3920:3991   */\n      tag_47\n      jump\t// in\n    tag_91:\n        /* \"#utility.yul\":4001:4073   */\n      tag_92\n        /* \"#utility.yul\":4069:4071   */\n      0x20\n        /* \"#utility.yul\":4058:4067   */\n      dup4\n        /* \"#utility.yul\":4054:4072   */\n      add\n        /* \"#utility.yul\":4045:4051   */\n      dup5\n        /* \"#utility.yul\":4001:4073   */\n      tag_39\n      jump\t// in\n    tag_92:\n        /* \"#utility.yul\":3748:4080   */\n      swap4\n      swap3\n      pop\n      pop\n      pop\n      jump\t// out\n    stop\n\n    sub_0: assembly {\n            /* \"Campaign.sol\":447:2355  contract Campaign {... */\n          mstore(0x40, 0x80)\n            /* \"Campaign.sol\":928:1050  constructor(uint256 min, address creator) {... */\n          callvalue\n          dup1\n          iszero\n          tag_1\n          jumpi\n          0x00\n          dup1\n          revert\n        tag_1:\n          pop\n          mload(0x40)\n          sub(codesize, bytecodeSize)\n          dup1\n          bytecodeSize\n          dup4\n          codecopy\n          dup2\n          dup2\n          add\n          0x40\n          mstore\n          dup2\n          add\n          swap1\n          tag_2\n          swap2\n          swap1\n          tag_3\n          jump\t// in\n        tag_2:\n            /* \"Campaign.sol\":999:1006  creator */\n          dup1\n            /* \"Campaign.sol\":981:996  campaignCreator */\n          0x00\n          dup1\n            /* \"Campaign.sol\":981:1006  campaignCreator = creator */\n          0x0100\n          exp\n          dup2\n          sload\n          dup2\n          0xffffffffffffffffffffffffffffffffffffffff\n          mul\n          not\n          and\n          swap1\n          dup4\n          0xffffffffffffffffffffffffffffffffffffffff\n          and\n          mul\n          or\n          swap1\n          sstore\n          pop\n            /* \"Campaign.sol\":1039:1042  min */\n          dup2\n            /* \"Campaign.sol\":1017:1036  minimumContribution */\n          0x01\n            /* \"Campaign.sol\":1017:1042  minimumContribution = min */\n          dup2\n          swap1\n          sstore\n          pop\n            /* \"Campaign.sol\":928:1050  constructor(uint256 min, address creator) {... */\n          pop\n          pop\n            /* \"Campaign.sol\":447:2355  contract Campaign {... */\n          jump(tag_6)\n            /* \"#utility.yul\":88:205   */\n        tag_8:\n            /* \"#utility.yul\":197:198   */\n          0x00\n            /* \"#utility.yul\":194:195   */\n          dup1\n            /* \"#utility.yul\":187:199   */\n          revert\n            /* \"#utility.yul\":334:411   */\n        tag_10:\n            /* \"#utility.yul\":371:378   */\n          0x00\n            /* \"#utility.yul\":400:405   */\n          dup2\n            /* \"#utility.yul\":389:405   */\n          swap1\n          pop\n            /* \"#utility.yul\":334:411   */\n          swap2\n          swap1\n          pop\n          jump\t// out\n            /* \"#utility.yul\":417:539   */\n        tag_11:\n            /* \"#utility.yul\":490:514   */\n          tag_23\n            /* \"#utility.yul\":508:513   */\n          dup2\n            /* \"#utility.yul\":490:514   */\n          tag_10\n          jump\t// in\n        tag_23:\n            /* \"#utility.yul\":483:488   */\n          dup2\n            /* \"#utility.yul\":480:515   */\n          eq\n            /* \"#utility.yul\":470:533   */\n          tag_24\n          jumpi\n            /* \"#utility.yul\":529:530   */\n          0x00\n            /* \"#utility.yul\":526:527   */\n          dup1\n            /* \"#utility.yul\":519:531   */\n          revert\n            /* \"#utility.yul\":470:533   */\n        tag_24:\n            /* \"#utility.yul\":417:539   */\n          pop\n          jump\t// out\n            /* \"#utility.yul\":545:688   */\n        tag_12:\n            /* \"#utility.yul\":602:607   */\n          0x00\n            /* \"#utility.yul\":633:639   */\n          dup2\n            /* \"#utility.yul\":627:640   */\n          mload\n            /* \"#utility.yul\":618:640   */\n          swap1\n          pop\n            /* \"#utility.yul\":649:682   */\n          tag_26\n            /* \"#utility.yul\":676:681   */\n          dup2\n            /* \"#utility.yul\":649:682   */\n          tag_11\n          jump\t// in\n        tag_26:\n            /* \"#utility.yul\":545:688   */\n          swap3\n          swap2\n          pop\n          pop\n          jump\t// out\n            /* \"#utility.yul\":694:820   */\n        tag_13:\n            /* \"#utility.yul\":731:738   */\n          0x00\n            /* \"#utility.yul\":771:813   */\n          0xffffffffffffffffffffffffffffffffffffffff\n            /* \"#utility.yul\":764:769   */\n          dup3\n            /* \"#utility.yul\":760:814   */\n          and\n            /* \"#utility.yul\":749:814   */\n          swap1\n          pop\n            /* \"#utility.yul\":694:820   */\n          swap2\n          swap1\n          pop\n          jump\t// out\n            /* \"#utility.yul\":826:922   */\n        tag_14:\n            /* \"#utility.yul\":863:870   */\n          0x00\n            /* \"#utility.yul\":892:916   */\n          tag_29\n            /* \"#utility.yul\":910:915   */\n          dup3\n            /* \"#utility.yul\":892:916   */\n          tag_13\n          jump\t// in\n        tag_29:\n            /* \"#utility.yul\":881:916   */\n          swap1\n          pop\n            /* \"#utility.yul\":826:922   */\n          swap2\n          swap1\n          pop\n          jump\t// out\n            /* \"#utility.yul\":928:1050   */\n        tag_15:\n            /* \"#utility.yul\":1001:1025   */\n          tag_31\n            /* \"#utility.yul\":1019:1024   */\n          dup2\n            /* \"#utility.yul\":1001:1025   */\n          tag_14\n          jump\t// in\n        tag_31:\n            /* \"#utility.yul\":994:999   */\n          dup2\n            /* \"#utility.yul\":991:1026   */\n          eq\n            /* \"#utility.yul\":981:1044   */\n          tag_32\n          jumpi\n            /* \"#utility.yul\":1040:1041   */\n          0x00\n            /* \"#utility.yul\":1037:1038   */\n          dup1\n            /* \"#utility.yul\":1030:1042   */\n          revert\n            /* \"#utility.yul\":981:1044   */\n        tag_32:\n            /* \"#utility.yul\":928:1050   */\n          pop\n          jump\t// out\n            /* \"#utility.yul\":1056:1199   */\n        tag_16:\n            /* \"#utility.yul\":1113:1118   */\n          0x00\n            /* \"#utility.yul\":1144:1150   */\n          dup2\n            /* \"#utility.yul\":1138:1151   */\n          mload\n            /* \"#utility.yul\":1129:1151   */\n          swap1\n          pop\n            /* \"#utility.yul\":1160:1193   */\n          tag_34\n            /* \"#utility.yul\":1187:1192   */\n          dup2\n            /* \"#utility.yul\":1160:1193   */\n          tag_15\n          jump\t// in\n        tag_34:\n            /* \"#utility.yul\":1056:1199   */\n          swap3\n          swap2\n          pop\n          pop\n          jump\t// out\n            /* \"#utility.yul\":1205:1712   */\n        tag_3:\n            /* \"#utility.yul\":1284:1290   */\n          0x00\n            /* \"#utility.yul\":1292:1298   */\n          dup1\n            /* \"#utility.yul\":1341:1343   */\n          0x40\n            /* \"#utility.yul\":1329:1338   */\n          dup4\n            /* \"#utility.yul\":1320:1327   */\n          dup6\n            /* \"#utility.yul\":1316:1339   */\n          sub\n            /* \"#utility.yul\":1312:1344   */\n          slt\n            /* \"#utility.yul\":1309:1428   */\n          iszero\n          tag_36\n          jumpi\n            /* \"#utility.yul\":1347:1426   */\n          tag_37\n          tag_8\n          jump\t// in\n        tag_37:\n            /* \"#utility.yul\":1309:1428   */\n        tag_36:\n            /* \"#utility.yul\":1467:1468   */\n          0x00\n            /* \"#utility.yul\":1492:1556   */\n          tag_38\n            /* \"#utility.yul\":1548:1555   */\n          dup6\n            /* \"#utility.yul\":1539:1545   */\n          dup3\n            /* \"#utility.yul\":1528:1537   */\n          dup7\n            /* \"#utility.yul\":1524:1546   */\n          add\n            /* \"#utility.yul\":1492:1556   */\n          tag_12\n          jump\t// in\n        tag_38:\n            /* \"#utility.yul\":1482:1556   */\n          swap3\n          pop\n            /* \"#utility.yul\":1438:1566   */\n          pop\n            /* \"#utility.yul\":1605:1607   */\n          0x20\n            /* \"#utility.yul\":1631:1695   */\n          tag_39\n            /* \"#utility.yul\":1687:1694   */\n          dup6\n            /* \"#utility.yul\":1678:1684   */\n          dup3\n            /* \"#utility.yul\":1667:1676   */\n          dup7\n            /* \"#utility.yul\":1663:1685   */\n          add\n            /* \"#utility.yul\":1631:1695   */\n          tag_16\n          jump\t// in\n        tag_39:\n            /* \"#utility.yul\":1621:1695   */\n          swap2\n          pop\n            /* \"#utility.yul\":1576:1705   */\n          pop\n            /* \"#utility.yul\":1205:1712   */\n          swap3\n          pop\n          swap3\n          swap1\n          pop\n          jump\t// out\n            /* \"Campaign.sol\":447:2355  contract Campaign {... */\n        tag_6:\n          dataSize(sub_0)\n          dup1\n          dataOffset(sub_0)\n          0x00\n          codecopy\n          0x00\n          return\n        stop\n\n        sub_0: assembly {\n                /* \"Campaign.sol\":447:2355  contract Campaign {... */\n              mstore(0x40, 0x80)\n              jumpi(tag_1, lt(calldatasize, 0x04))\n              shr(0xe0, calldataload(0x00))\n              dup1\n              0x82fde093\n              gt\n              tag_11\n              jumpi\n              dup1\n              0x82fde093\n              eq\n              tag_6\n              jumpi\n              dup1\n              0x8a9cfd55\n              eq\n              tag_7\n              jumpi\n              dup1\n              0x937e09b1\n              eq\n              tag_8\n              jumpi\n              dup1\n              0xd7bb99ba\n              eq\n              tag_9\n              jumpi\n              dup1\n              0xe7b668b4\n              eq\n              tag_10\n              jumpi\n              jump(tag_1)\n            tag_11:\n              dup1\n              0x0121b93f\n              eq\n              tag_2\n              jumpi\n              dup1\n              0x0a144391\n              eq\n              tag_3\n              jumpi\n              dup1\n              0x76daefd0\n              eq\n              tag_4\n              jumpi\n              dup1\n              0x81d12c58\n              eq\n              tag_5\n              jumpi\n            tag_1:\n              0x00\n              dup1\n              revert\n                /* \"Campaign.sol\":1731:1991  function vote(uint256 num) public {... */\n            tag_2:\n              callvalue\n              dup1\n              iszero\n              tag_12\n              jumpi\n              0x00\n              dup1\n              revert\n            tag_12:\n              pop\n              tag_13\n              0x04\n              dup1\n              calldatasize\n              sub\n              dup2\n              add\n              swap1\n              tag_14\n              swap2\n              swap1\n              tag_15\n              jump\t// in\n            tag_14:\n              tag_16\n              jump\t// in\n            tag_13:\n              stop\n                /* \"Campaign.sol\":878:919  mapping(address => bool) public approvers */\n            tag_3:\n              callvalue\n              dup1\n              iszero\n              tag_17\n              jumpi\n              0x00\n              dup1\n              revert\n            tag_17:\n              pop\n              tag_18\n              0x04\n              dup1\n              calldatasize\n              sub\n              dup2\n              add\n              swap1\n              tag_19\n              swap2\n              swap1\n              tag_20\n              jump\t// in\n            tag_19:\n              tag_21\n              jump\t// in\n            tag_18:\n              mload(0x40)\n              tag_22\n              swap2\n              swap1\n              tag_23\n              jump\t// in\n            tag_22:\n              mload(0x40)\n              dup1\n              swap2\n              sub\n              swap1\n              return\n                /* \"Campaign.sol\":472:502  address public campaignCreator */\n            tag_4:\n              callvalue\n              dup1\n              iszero\n              tag_24\n              jumpi\n              0x00\n              dup1\n              revert\n            tag_24:\n              pop\n              tag_25\n              tag_26\n              jump\t// in\n            tag_25:\n              mload(0x40)\n              tag_27\n              swap2\n              swap1\n              tag_28\n              jump\t// in\n            tag_27:\n              mload(0x40)\n              dup1\n              swap2\n              sub\n              swap1\n              return\n                /* \"Campaign.sol\":826:869  mapping(uint256 => Request) public requests */\n            tag_5:\n              callvalue\n              dup1\n              iszero\n              tag_29\n              jumpi\n              0x00\n              dup1\n              revert\n            tag_29:\n              pop\n              tag_30\n              0x04\n              dup1\n              calldatasize\n              sub\n              dup2\n              add\n              swap1\n              tag_31\n              swap2\n              swap1\n              tag_15\n              jump\t// in\n            tag_31:\n              tag_32\n              jump\t// in\n            tag_30:\n              mload(0x40)\n              tag_33\n              swap6\n              swap5\n              swap4\n              swap3\n              swap2\n              swap1\n              tag_34\n              jump\t// in\n            tag_33:\n              mload(0x40)\n              dup1\n              swap2\n              sub\n              swap1\n              return\n                /* \"Campaign.sol\":550:579  uint256 public approversCount */\n            tag_6:\n              callvalue\n              dup1\n              iszero\n              tag_35\n              jumpi\n              0x00\n              dup1\n              revert\n            tag_35:\n              pop\n              tag_36\n              tag_37\n              jump\t// in\n            tag_36:\n              mload(0x40)\n              tag_38\n              swap2\n              swap1\n              tag_39\n              jump\t// in\n            tag_38:\n              mload(0x40)\n              dup1\n              swap2\n              sub\n              swap1\n              return\n                /* \"Campaign.sol\":1158:1552  function createRequest(... */\n            tag_7:\n              callvalue\n              dup1\n              iszero\n              tag_40\n              jumpi\n              0x00\n              dup1\n              revert\n            tag_40:\n              pop\n              tag_41\n              0x04\n              dup1\n              calldatasize\n              sub\n              dup2\n              add\n              swap1\n              tag_42\n              swap2\n              swap1\n              tag_43\n              jump\t// in\n            tag_42:\n              tag_44\n              jump\t// in\n            tag_41:\n              stop\n                /* \"Campaign.sol\":509:543  uint256 public minimumContribution */\n            tag_8:\n              callvalue\n              dup1\n              iszero\n              tag_45\n              jumpi\n              0x00\n              dup1\n              revert\n            tag_45:\n              pop\n              tag_46\n              tag_47\n              jump\t// in\n            tag_46:\n              mload(0x40)\n              tag_48\n              swap2\n              swap1\n              tag_39\n              jump\t// in\n            tag_48:\n              mload(0x40)\n              dup1\n              swap2\n              sub\n              swap1\n              return\n                /* \"Campaign.sol\":1560:1723  function contribute() public payable {... */\n            tag_9:\n              tag_49\n              tag_50\n              jump\t// in\n            tag_49:\n              stop\n                /* \"Campaign.sol\":1999:2352  function finaliseRequest(uint256 num) public onlyCreator {... */\n            tag_10:\n              callvalue\n              dup1\n              iszero\n              tag_51\n              jumpi\n              0x00\n              dup1\n              revert\n            tag_51:\n              pop\n              tag_52\n              0x04\n              dup1\n              calldatasize\n              sub\n              dup2\n              add\n              swap1\n              tag_53\n              swap2\n              swap1\n              tag_15\n              jump\t// in\n            tag_53:\n              tag_54\n              jump\t// in\n            tag_52:\n              stop\n                /* \"Campaign.sol\":1731:1991  function vote(uint256 num) public {... */\n            tag_16:\n                /* \"Campaign.sol\":1776:1799  Request storage request */\n              0x00\n                /* \"Campaign.sol\":1802:1810  requests */\n              0x04\n                /* \"Campaign.sol\":1802:1815  requests[num] */\n              0x00\n                /* \"Campaign.sol\":1811:1814  num */\n              dup4\n                /* \"Campaign.sol\":1802:1815  requests[num] */\n              dup2\n              mstore\n              0x20\n              add\n              swap1\n              dup2\n              mstore\n              0x20\n              add\n              0x00\n              keccak256\n                /* \"Campaign.sol\":1776:1815  Request storage request = requests[num] */\n              swap1\n              pop\n                /* \"Campaign.sol\":1834:1843  approvers */\n              0x05\n                /* \"Campaign.sol\":1834:1855  approvers[msg.sender] */\n              0x00\n                /* \"Campaign.sol\":1844:1854  msg.sender */\n              caller\n                /* \"Campaign.sol\":1834:1855  approvers[msg.sender] */\n              0xffffffffffffffffffffffffffffffffffffffff\n              and\n              0xffffffffffffffffffffffffffffffffffffffff\n              and\n              dup2\n              mstore\n              0x20\n              add\n              swap1\n              dup2\n              mstore\n              0x20\n              add\n              0x00\n              keccak256\n              0x00\n              swap1\n              sload\n              swap1\n              0x0100\n              exp\n              swap1\n              div\n              0xff\n              and\n                /* \"Campaign.sol\":1826:1856  require(approvers[msg.sender]) */\n              tag_56\n              jumpi\n              0x00\n              dup1\n              revert\n            tag_56:\n                /* \"Campaign.sol\":1876:1883  request */\n              dup1\n                /* \"Campaign.sol\":1876:1893  request.approvals */\n              0x04\n              add\n                /* \"Campaign.sol\":1876:1905  request.approvals[msg.sender] */\n              0x00\n                /* \"Campaign.sol\":1894:1904  msg.sender */\n              caller\n                /* \"Campaign.sol\":1876:1905  request.approvals[msg.sender] */\n              0xffffffffffffffffffffffffffffffffffffffff\n              and\n              0xffffffffffffffffffffffffffffffffffffffff\n              and\n              dup2\n              mstore\n              0x20\n              add\n              swap1\n              dup2\n              mstore\n              0x20\n              add\n              0x00\n              keccak256\n              0x00\n              swap1\n              sload\n              swap1\n              0x0100\n              exp\n              swap1\n              div\n              0xff\n              and\n                /* \"Campaign.sol\":1875:1905  !request.approvals[msg.sender] */\n              iszero\n                /* \"Campaign.sol\":1867:1906  require(!request.approvals[msg.sender]) */\n              tag_57\n              jumpi\n              0x00\n              dup1\n              revert\n            tag_57:\n                /* \"Campaign.sol\":1917:1924  request */\n              dup1\n                /* \"Campaign.sol\":1917:1934  request.voteCount */\n              0x03\n              add\n              0x00\n                /* \"Campaign.sol\":1917:1936  request.voteCount++ */\n              dup2\n              sload\n              dup1\n              swap3\n              swap2\n              swap1\n              tag_58\n              swap1\n              tag_59\n              jump\t// in\n            tag_58:\n              swap2\n              swap1\n              pop\n              sstore\n              pop\n                /* \"Campaign.sol\":1979:1983  true */\n              0x01\n                /* \"Campaign.sol\":1947:1954  request */\n              dup2\n                /* \"Campaign.sol\":1947:1964  request.approvals */\n              0x04\n              add\n                /* \"Campaign.sol\":1947:1976  request.approvals[msg.sender] */\n              0x00\n                /* \"Campaign.sol\":1965:1975  msg.sender */\n              caller\n                /* \"Campaign.sol\":1947:1976  request.approvals[msg.sender] */\n              0xffffffffffffffffffffffffffffffffffffffff\n              and\n              0xffffffffffffffffffffffffffffffffffffffff\n              and\n              dup2\n              mstore\n              0x20\n              add\n              swap1\n              dup2\n              mstore\n              0x20\n              add\n              0x00\n              keccak256\n              0x00\n                /* \"Campaign.sol\":1947:1983  request.approvals[msg.sender] = true */\n              0x0100\n              exp\n              dup2\n              sload\n              dup2\n              0xff\n              mul\n              not\n              and\n              swap1\n              dup4\n              iszero\n              iszero\n              mul\n              or\n              swap1\n              sstore\n              pop\n                /* \"Campaign.sol\":1765:1991  {... */\n              pop\n                /* \"Campaign.sol\":1731:1991  function vote(uint256 num) public {... */\n              pop\n              jump\t// out\n                /* \"Campaign.sol\":878:919  mapping(address => bool) public approvers */\n            tag_21:\n              mstore(0x20, 0x05)\n              dup1\n              0x00\n              mstore\n              keccak256(0x00, 0x40)\n              0x00\n              swap2\n              pop\n              sload\n              swap1\n              0x0100\n              exp\n              swap1\n              div\n              0xff\n              and\n              dup2\n              jump\t// out\n                /* \"Campaign.sol\":472:502  address public campaignCreator */\n            tag_26:\n              0x00\n              dup1\n              sload\n              swap1\n              0x0100\n              exp\n              swap1\n              div\n              0xffffffffffffffffffffffffffffffffffffffff\n              and\n              dup2\n              jump\t// out\n                /* \"Campaign.sol\":826:869  mapping(uint256 => Request) public requests */\n            tag_32:\n              mstore(0x20, 0x04)\n              dup1\n              0x00\n              mstore\n              keccak256(0x00, 0x40)\n              0x00\n              swap2\n              pop\n              swap1\n              pop\n              dup1\n              0x00\n              add\n              dup1\n              sload\n              tag_60\n              swap1\n              tag_61\n              jump\t// in\n            tag_60:\n              dup1\n              0x1f\n              add\n              0x20\n              dup1\n              swap2\n              div\n              mul\n              0x20\n              add\n              mload(0x40)\n              swap1\n              dup2\n              add\n              0x40\n              mstore\n              dup1\n              swap3\n              swap2\n              swap1\n              dup2\n              dup2\n              mstore\n              0x20\n              add\n              dup3\n              dup1\n              sload\n              tag_62\n              swap1\n              tag_61\n              jump\t// in\n            tag_62:\n              dup1\n              iszero\n              tag_63\n              jumpi\n              dup1\n              0x1f\n              lt\n              tag_64\n              jumpi\n              0x0100\n              dup1\n              dup4\n              sload\n              div\n              mul\n              dup4\n              mstore\n              swap2\n              0x20\n              add\n              swap2\n              jump(tag_63)\n            tag_64:\n              dup3\n              add\n              swap2\n              swap1\n              0x00\n              mstore\n              keccak256(0x00, 0x20)\n              swap1\n            tag_65:\n              dup2\n              sload\n              dup2\n              mstore\n              swap1\n              0x01\n              add\n              swap1\n              0x20\n              add\n              dup1\n              dup4\n              gt\n              tag_65\n              jumpi\n              dup3\n              swap1\n              sub\n              0x1f\n              and\n              dup3\n              add\n              swap2\n            tag_63:\n              pop\n              pop\n              pop\n              pop\n              pop\n              swap1\n              dup1\n              0x01\n              add\n              sload\n              swap1\n              dup1\n              0x02\n              add\n              0x00\n              swap1\n              sload\n              swap1\n              0x0100\n              exp\n              swap1\n              div\n              0xffffffffffffffffffffffffffffffffffffffff\n              and\n              swap1\n              dup1\n              0x02\n              add\n              0x14\n              swap1\n              sload\n              swap1\n              0x0100\n              exp\n              swap1\n              div\n              0xff\n              and\n              swap1\n              dup1\n              0x03\n              add\n              sload\n              swap1\n              pop\n              dup6\n              jump\t// out\n                /* \"Campaign.sol\":550:579  uint256 public approversCount */\n            tag_37:\n              sload(0x02)\n              dup2\n              jump\t// out\n                /* \"Campaign.sol\":1158:1552  function createRequest(... */\n            tag_44:\n                /* \"Campaign.sol\":1114:1129  campaignCreator */\n              0x00\n              dup1\n              sload\n              swap1\n              0x0100\n              exp\n              swap1\n              div\n              0xffffffffffffffffffffffffffffffffffffffff\n              and\n                /* \"Campaign.sol\":1100:1129  msg.sender == campaignCreator */\n              0xffffffffffffffffffffffffffffffffffffffff\n              and\n                /* \"Campaign.sol\":1100:1110  msg.sender */\n              caller\n                /* \"Campaign.sol\":1100:1129  msg.sender == campaignCreator */\n              0xffffffffffffffffffffffffffffffffffffffff\n              and\n              eq\n                /* \"Campaign.sol\":1092:1130  require(msg.sender == campaignCreator) */\n              tag_67\n              jumpi\n              0x00\n              dup1\n              revert\n            tag_67:\n                /* \"Campaign.sol\":1306:1329  Request storage request */\n              0x00\n                /* \"Campaign.sol\":1332:1340  requests */\n              0x04\n                /* \"Campaign.sol\":1332:1354  requests[newRequest++] */\n              0x00\n                /* \"Campaign.sol\":1341:1351  newRequest */\n              0x03\n              0x00\n                /* \"Campaign.sol\":1341:1353  newRequest++ */\n              dup2\n              sload\n              dup1\n              swap3\n              swap2\n              swap1\n              tag_69\n              swap1\n              tag_59\n              jump\t// in\n            tag_69:\n              swap2\n              swap1\n              pop\n              sstore\n                /* \"Campaign.sol\":1332:1354  requests[newRequest++] */\n              dup2\n              mstore\n              0x20\n              add\n              swap1\n              dup2\n              mstore\n              0x20\n              add\n              0x00\n              keccak256\n                /* \"Campaign.sol\":1306:1354  Request storage request = requests[newRequest++] */\n              swap1\n              pop\n                /* \"Campaign.sol\":1387:1398  description */\n              dup4\n                /* \"Campaign.sol\":1365:1372  request */\n              dup2\n                /* \"Campaign.sol\":1365:1384  request.description */\n              0x00\n              add\n                /* \"Campaign.sol\":1365:1398  request.description = description */\n              swap1\n              dup2\n              tag_70\n              swap2\n              swap1\n              tag_71\n              jump\t// in\n            tag_70:\n              pop\n                /* \"Campaign.sol\":1425:1430  value */\n              dup3\n                /* \"Campaign.sol\":1409:1416  request */\n              dup2\n                /* \"Campaign.sol\":1409:1422  request.value */\n              0x01\n              add\n                /* \"Campaign.sol\":1409:1430  request.value = value */\n              dup2\n              swap1\n              sstore\n              pop\n                /* \"Campaign.sol\":1469:1478  recipient */\n              dup2\n                /* \"Campaign.sol\":1441:1448  request */\n              dup2\n                /* \"Campaign.sol\":1441:1458  request.recipient */\n              0x02\n              add\n              0x00\n                /* \"Campaign.sol\":1441:1479  request.recipient = payable(recipient) */\n              0x0100\n              exp\n              dup2\n              sload\n              dup2\n              0xffffffffffffffffffffffffffffffffffffffff\n              mul\n              not\n              and\n              swap1\n              dup4\n              0xffffffffffffffffffffffffffffffffffffffff\n              and\n              mul\n              or\n              swap1\n              sstore\n              pop\n                /* \"Campaign.sol\":1507:1512  false */\n              0x00\n                /* \"Campaign.sol\":1490:1497  request */\n              dup2\n                /* \"Campaign.sol\":1490:1504  request.status */\n              0x02\n              add\n              0x14\n                /* \"Campaign.sol\":1490:1512  request.status = false */\n              0x0100\n              exp\n              dup2\n              sload\n              dup2\n              0xff\n              mul\n              not\n              and\n              swap1\n              dup4\n              iszero\n              iszero\n              mul\n              or\n              swap1\n              sstore\n              pop\n                /* \"Campaign.sol\":1543:1544  0 */\n              0x00\n                /* \"Campaign.sol\":1523:1530  request */\n              dup2\n                /* \"Campaign.sol\":1523:1540  request.voteCount */\n              0x03\n              add\n                /* \"Campaign.sol\":1523:1544  request.voteCount = 0 */\n              dup2\n              swap1\n              sstore\n              pop\n                /* \"Campaign.sol\":1295:1552  {... */\n              pop\n                /* \"Campaign.sol\":1158:1552  function createRequest(... */\n              pop\n              pop\n              pop\n              jump\t// out\n                /* \"Campaign.sol\":509:543  uint256 public minimumContribution */\n            tag_47:\n              sload(0x01)\n              dup2\n              jump\t// out\n                /* \"Campaign.sol\":1560:1723  function contribute() public payable {... */\n            tag_50:\n                /* \"Campaign.sol\":1629:1648  minimumContribution */\n              sload(0x01)\n                /* \"Campaign.sol\":1616:1625  msg.value */\n              callvalue\n                /* \"Campaign.sol\":1616:1648  msg.value >= minimumContribution */\n              lt\n              iszero\n                /* \"Campaign.sol\":1608:1649  require(msg.value >= minimumContribution) */\n              tag_73\n              jumpi\n              0x00\n              dup1\n              revert\n            tag_73:\n                /* \"Campaign.sol\":1684:1688  true */\n              0x01\n                /* \"Campaign.sol\":1660:1669  approvers */\n              0x05\n                /* \"Campaign.sol\":1660:1681  approvers[msg.sender] */\n              0x00\n                /* \"Campaign.sol\":1670:1680  msg.sender */\n              caller\n                /* \"Campaign.sol\":1660:1681  approvers[msg.sender] */\n              0xffffffffffffffffffffffffffffffffffffffff\n              and\n              0xffffffffffffffffffffffffffffffffffffffff\n              and\n              dup2\n              mstore\n              0x20\n              add\n              swap1\n              dup2\n              mstore\n              0x20\n              add\n              0x00\n              keccak256\n              0x00\n                /* \"Campaign.sol\":1660:1688  approvers[msg.sender] = true */\n              0x0100\n              exp\n              dup2\n              sload\n              dup2\n              0xff\n              mul\n              not\n              and\n              swap1\n              dup4\n              iszero\n              iszero\n              mul\n              or\n              swap1\n              sstore\n              pop\n                /* \"Campaign.sol\":1699:1713  approversCount */\n              0x02\n              0x00\n                /* \"Campaign.sol\":1699:1715  approversCount++ */\n              dup2\n              sload\n              dup1\n              swap3\n              swap2\n              swap1\n              tag_74\n              swap1\n              tag_59\n              jump\t// in\n            tag_74:\n              swap2\n              swap1\n              pop\n              sstore\n              pop\n                /* \"Campaign.sol\":1560:1723  function contribute() public payable {... */\n              jump\t// out\n                /* \"Campaign.sol\":1999:2352  function finaliseRequest(uint256 num) public onlyCreator {... */\n            tag_54:\n                /* \"Campaign.sol\":1114:1129  campaignCreator */\n              0x00\n              dup1\n              sload\n              swap1\n              0x0100\n              exp\n              swap1\n              div\n              0xffffffffffffffffffffffffffffffffffffffff\n              and\n                /* \"Campaign.sol\":1100:1129  msg.sender == campaignCreator */\n              0xffffffffffffffffffffffffffffffffffffffff\n              and\n                /* \"Campaign.sol\":1100:1110  msg.sender */\n              caller\n                /* \"Campaign.sol\":1100:1129  msg.sender == campaignCreator */\n              0xffffffffffffffffffffffffffffffffffffffff\n              and\n              eq\n                /* \"Campaign.sol\":1092:1130  require(msg.sender == campaignCreator) */\n              tag_76\n              jumpi\n              0x00\n              dup1\n              revert\n            tag_76:\n                /* \"Campaign.sol\":2067:2090  Request storage request */\n              0x00\n                /* \"Campaign.sol\":2093:2101  requests */\n              0x04\n                /* \"Campaign.sol\":2093:2106  requests[num] */\n              0x00\n                /* \"Campaign.sol\":2102:2105  num */\n              dup4\n                /* \"Campaign.sol\":2093:2106  requests[num] */\n              dup2\n              mstore\n              0x20\n              add\n              swap1\n              dup2\n              mstore\n              0x20\n              add\n              0x00\n              keccak256\n                /* \"Campaign.sol\":2067:2106  Request storage request = requests[num] */\n              swap1\n              pop\n                /* \"Campaign.sol\":2126:2133  request */\n              dup1\n                /* \"Campaign.sol\":2126:2140  request.status */\n              0x02\n              add\n              0x14\n              swap1\n              sload\n              swap1\n              0x0100\n              exp\n              swap1\n              div\n              0xff\n              and\n                /* \"Campaign.sol\":2125:2140  !request.status */\n              iszero\n                /* \"Campaign.sol\":2117:2141  require(!request.status) */\n              tag_78\n              jumpi\n              0x00\n              dup1\n              revert\n            tag_78:\n                /* \"Campaign.sol\":2198:2199  2 */\n              0x02\n                /* \"Campaign.sol\":2181:2195  approversCount */\n              dup1\n              sload\n                /* \"Campaign.sol\":2181:2199  approversCount / 2 */\n              tag_79\n              swap2\n              swap1\n              tag_80\n              jump\t// in\n            tag_79:\n                /* \"Campaign.sol\":2160:2167  request */\n              dup2\n                /* \"Campaign.sol\":2160:2177  request.voteCount */\n              0x03\n              add\n              sload\n                /* \"Campaign.sol\":2160:2200  request.voteCount > (approversCount / 2) */\n              gt\n                /* \"Campaign.sol\":2152:2201  require(request.voteCount > (approversCount / 2)) */\n              tag_81\n              jumpi\n              0x00\n              dup1\n              revert\n            tag_81:\n                /* \"Campaign.sol\":2236:2257  address(this).balance */\n              selfbalance\n                /* \"Campaign.sol\":2220:2227  request */\n              dup2\n                /* \"Campaign.sol\":2220:2233  request.value */\n              0x01\n              add\n              sload\n                /* \"Campaign.sol\":2220:2257  request.value < address(this).balance */\n              lt\n                /* \"Campaign.sol\":2212:2258  require(request.value < address(this).balance) */\n              tag_82\n              jumpi\n              0x00\n              dup1\n              revert\n            tag_82:\n                /* \"Campaign.sol\":2271:2278  request */\n              dup1\n                /* \"Campaign.sol\":2271:2288  request.recipient */\n              0x02\n              add\n              0x00\n              swap1\n              sload\n              swap1\n              0x0100\n              exp\n              swap1\n              div\n              0xffffffffffffffffffffffffffffffffffffffff\n              and\n                /* \"Campaign.sol\":2271:2297  request.recipient.transfer */\n              0xffffffffffffffffffffffffffffffffffffffff\n              and\n                /* \"Campaign.sol\":2271:2312  request.recipient.transfer(request.value) */\n              0x08fc\n                /* \"Campaign.sol\":2298:2305  request */\n              dup3\n                /* \"Campaign.sol\":2298:2311  request.value */\n              0x01\n              add\n              sload\n                /* \"Campaign.sol\":2271:2312  request.recipient.transfer(request.value) */\n              swap1\n              dup2\n              iszero\n              mul\n              swap1\n              mload(0x40)\n              0x00\n              mload(0x40)\n              dup1\n              dup4\n              sub\n              dup2\n              dup6\n              dup9\n              dup9\n              call\n              swap4\n              pop\n              pop\n              pop\n              pop\n              iszero\n              dup1\n              iszero\n              tag_84\n              jumpi\n              returndatasize\n              0x00\n              dup1\n              returndatacopy\n              revert(0x00, returndatasize)\n            tag_84:\n              pop\n                /* \"Campaign.sol\":2340:2344  true */\n              0x01\n                /* \"Campaign.sol\":2323:2330  request */\n              dup2\n                /* \"Campaign.sol\":2323:2337  request.status */\n              0x02\n              add\n              0x14\n                /* \"Campaign.sol\":2323:2344  request.status = true */\n              0x0100\n              exp\n              dup2\n              sload\n              dup2\n              0xff\n              mul\n              not\n              and\n              swap1\n              dup4\n              iszero\n              iszero\n              mul\n              or\n              swap1\n              sstore\n              pop\n                /* \"Campaign.sol\":2056:2352  {... */\n              pop\n                /* \"Campaign.sol\":1999:2352  function finaliseRequest(uint256 num) public onlyCreator {... */\n              pop\n              jump\t// out\n                /* \"#utility.yul\":7:82   */\n            tag_85:\n                /* \"#utility.yul\":40:46   */\n              0x00\n                /* \"#utility.yul\":73:75   */\n              0x40\n                /* \"#utility.yul\":67:76   */\n              mload\n                /* \"#utility.yul\":57:76   */\n              swap1\n              pop\n                /* \"#utility.yul\":7:82   */\n              swap1\n              jump\t// out\n                /* \"#utility.yul\":88:205   */\n            tag_86:\n                /* \"#utility.yul\":197:198   */\n              0x00\n                /* \"#utility.yul\":194:195   */\n              dup1\n                /* \"#utility.yul\":187:199   */\n              revert\n                /* \"#utility.yul\":211:328   */\n            tag_87:\n                /* \"#utility.yul\":320:321   */\n              0x00\n                /* \"#utility.yul\":317:318   */\n              dup1\n                /* \"#utility.yul\":310:322   */\n              revert\n                /* \"#utility.yul\":334:411   */\n            tag_88:\n                /* \"#utility.yul\":371:378   */\n              0x00\n                /* \"#utility.yul\":400:405   */\n              dup2\n                /* \"#utility.yul\":389:405   */\n              swap1\n              pop\n                /* \"#utility.yul\":334:411   */\n              swap2\n              swap1\n              pop\n              jump\t// out\n                /* \"#utility.yul\":417:539   */\n            tag_89:\n                /* \"#utility.yul\":490:514   */\n              tag_139\n                /* \"#utility.yul\":508:513   */\n              dup2\n                /* \"#utility.yul\":490:514   */\n              tag_88\n              jump\t// in\n            tag_139:\n                /* \"#utility.yul\":483:488   */\n              dup2\n                /* \"#utility.yul\":480:515   */\n              eq\n                /* \"#utility.yul\":470:533   */\n              tag_140\n              jumpi\n                /* \"#utility.yul\":529:530   */\n              0x00\n                /* \"#utility.yul\":526:527   */\n              dup1\n                /* \"#utility.yul\":519:531   */\n              revert\n                /* \"#utility.yul\":470:533   */\n            tag_140:\n                /* \"#utility.yul\":417:539   */\n              pop\n              jump\t// out\n                /* \"#utility.yul\":545:684   */\n            tag_90:\n                /* \"#utility.yul\":591:596   */\n              0x00\n                /* \"#utility.yul\":629:635   */\n              dup2\n                /* \"#utility.yul\":616:636   */\n              calldataload\n                /* \"#utility.yul\":607:636   */\n              swap1\n              pop\n                /* \"#utility.yul\":645:678   */\n              tag_142\n                /* \"#utility.yul\":672:677   */\n              dup2\n                /* \"#utility.yul\":645:678   */\n              tag_89\n              jump\t// in\n            tag_142:\n                /* \"#utility.yul\":545:684   */\n              swap3\n              swap2\n              pop\n              pop\n              jump\t// out\n                /* \"#utility.yul\":690:1019   */\n            tag_15:\n                /* \"#utility.yul\":749:755   */\n              0x00\n                /* \"#utility.yul\":798:800   */\n              0x20\n                /* \"#utility.yul\":786:795   */\n              dup3\n                /* \"#utility.yul\":777:784   */\n              dup5\n                /* \"#utility.yul\":773:796   */\n              sub\n                /* \"#utility.yul\":769:801   */\n              slt\n                /* \"#utility.yul\":766:885   */\n              iszero\n              tag_144\n              jumpi\n                /* \"#utility.yul\":804:883   */\n              tag_145\n              tag_86\n              jump\t// in\n            tag_145:\n                /* \"#utility.yul\":766:885   */\n            tag_144:\n                /* \"#utility.yul\":924:925   */\n              0x00\n                /* \"#utility.yul\":949:1002   */\n              tag_146\n                /* \"#utility.yul\":994:1001   */\n              dup5\n                /* \"#utility.yul\":985:991   */\n              dup3\n                /* \"#utility.yul\":974:983   */\n              dup6\n                /* \"#utility.yul\":970:992   */\n              add\n                /* \"#utility.yul\":949:1002   */\n              tag_90\n              jump\t// in\n            tag_146:\n                /* \"#utility.yul\":939:1002   */\n              swap2\n              pop\n                /* \"#utility.yul\":895:1012   */\n              pop\n                /* \"#utility.yul\":690:1019   */\n              swap3\n              swap2\n              pop\n              pop\n              jump\t// out\n                /* \"#utility.yul\":1025:1151   */\n            tag_91:\n                /* \"#utility.yul\":1062:1069   */\n              0x00\n                /* \"#utility.yul\":1102:1144   */\n              0xffffffffffffffffffffffffffffffffffffffff\n                /* \"#utility.yul\":1095:1100   */\n              dup3\n                /* \"#utility.yul\":1091:1145   */\n              and\n                /* \"#utility.yul\":1080:1145   */\n              swap1\n              pop\n                /* \"#utility.yul\":1025:1151   */\n              swap2\n              swap1\n              pop\n              jump\t// out\n                /* \"#utility.yul\":1157:1253   */\n            tag_92:\n                /* \"#utility.yul\":1194:1201   */\n              0x00\n                /* \"#utility.yul\":1223:1247   */\n              tag_149\n                /* \"#utility.yul\":1241:1246   */\n              dup3\n                /* \"#utility.yul\":1223:1247   */\n              tag_91\n              jump\t// in\n            tag_149:\n                /* \"#utility.yul\":1212:1247   */\n              swap1\n              pop\n                /* \"#utility.yul\":1157:1253   */\n              swap2\n              swap1\n              pop\n              jump\t// out\n                /* \"#utility.yul\":1259:1381   */\n            tag_93:\n                /* \"#utility.yul\":1332:1356   */\n              tag_151\n                /* \"#utility.yul\":1350:1355   */\n              dup2\n                /* \"#utility.yul\":1332:1356   */\n              tag_92\n              jump\t// in\n            tag_151:\n                /* \"#utility.yul\":1325:1330   */\n              dup2\n                /* \"#utility.yul\":1322:1357   */\n              eq\n                /* \"#utility.yul\":1312:1375   */\n              tag_152\n              jumpi\n                /* \"#utility.yul\":1371:1372   */\n              0x00\n                /* \"#utility.yul\":1368:1369   */\n              dup1\n                /* \"#utility.yul\":1361:1373   */\n              revert\n                /* \"#utility.yul\":1312:1375   */\n            tag_152:\n                /* \"#utility.yul\":1259:1381   */\n              pop\n              jump\t// out\n                /* \"#utility.yul\":1387:1526   */\n            tag_94:\n                /* \"#utility.yul\":1433:1438   */\n              0x00\n                /* \"#utility.yul\":1471:1477   */\n              dup2\n                /* \"#utility.yul\":1458:1478   */\n              calldataload\n                /* \"#utility.yul\":1449:1478   */\n              swap1\n              pop\n                /* \"#utility.yul\":1487:1520   */\n              tag_154\n                /* \"#utility.yul\":1514:1519   */\n              dup2\n                /* \"#utility.yul\":1487:1520   */\n              tag_93\n              jump\t// in\n            tag_154:\n                /* \"#utility.yul\":1387:1526   */\n              swap3\n              swap2\n              pop\n              pop\n              jump\t// out\n                /* \"#utility.yul\":1532:1861   */\n            tag_20:\n                /* \"#utility.yul\":1591:1597   */\n              0x00\n                /* \"#utility.yul\":1640:1642   */\n              0x20\n                /* \"#utility.yul\":1628:1637   */\n              dup3\n                /* \"#utility.yul\":1619:1626   */\n              dup5\n                /* \"#utility.yul\":1615:1638   */\n              sub\n                /* \"#utility.yul\":1611:1643   */\n              slt\n                /* \"#utility.yul\":1608:1727   */\n              iszero\n              tag_156\n              jumpi\n                /* \"#utility.yul\":1646:1725   */\n              tag_157\n              tag_86\n              jump\t// in\n            tag_157:\n                /* \"#utility.yul\":1608:1727   */\n            tag_156:\n                /* \"#utility.yul\":1766:1767   */\n              0x00\n                /* \"#utility.yul\":1791:1844   */\n              tag_158\n                /* \"#utility.yul\":1836:1843   */\n              dup5\n                /* \"#utility.yul\":1827:1833   */\n              dup3\n                /* \"#utility.yul\":1816:1825   */\n              dup6\n                /* \"#utility.yul\":1812:1834   */\n              add\n                /* \"#utility.yul\":1791:1844   */\n              tag_94\n              jump\t// in\n            tag_158:\n                /* \"#utility.yul\":1781:1844   */\n              swap2\n              pop\n                /* \"#utility.yul\":1737:1854   */\n              pop\n                /* \"#utility.yul\":1532:1861   */\n              swap3\n              swap2\n              pop\n              pop\n              jump\t// out\n                /* \"#utility.yul\":1867:1957   */\n            tag_95:\n                /* \"#utility.yul\":1901:1908   */\n              0x00\n                /* \"#utility.yul\":1944:1949   */\n              dup2\n                /* \"#utility.yul\":1937:1950   */\n              iszero\n                /* \"#utility.yul\":1930:1951   */\n              iszero\n                /* \"#utility.yul\":1919:1951   */\n              swap1\n              pop\n                /* \"#utility.yul\":1867:1957   */\n              swap2\n              swap1\n              pop\n              jump\t// out\n                /* \"#utility.yul\":1963:2072   */\n            tag_96:\n                /* \"#utility.yul\":2044:2065   */\n              tag_161\n                /* \"#utility.yul\":2059:2064   */\n              dup2\n                /* \"#utility.yul\":2044:2065   */\n              tag_95\n              jump\t// in\n            tag_161:\n                /* \"#utility.yul\":2039:2042   */\n              dup3\n                /* \"#utility.yul\":2032:2066   */\n              mstore\n                /* \"#utility.yul\":1963:2072   */\n              pop\n              pop\n              jump\t// out\n                /* \"#utility.yul\":2078:2288   */\n            tag_23:\n                /* \"#utility.yul\":2165:2169   */\n              0x00\n                /* \"#utility.yul\":2203:2205   */\n              0x20\n                /* \"#utility.yul\":2192:2201   */\n              dup3\n                /* \"#utility.yul\":2188:2206   */\n              add\n                /* \"#utility.yul\":2180:2206   */\n              swap1\n              pop\n                /* \"#utility.yul\":2216:2281   */\n              tag_163\n                /* \"#utility.yul\":2278:2279   */\n              0x00\n                /* \"#utility.yul\":2267:2276   */\n              dup4\n                /* \"#utility.yul\":2263:2280   */\n              add\n                /* \"#utility.yul\":2254:2260   */\n              dup5\n                /* \"#utility.yul\":2216:2281   */\n              tag_96\n              jump\t// in\n            tag_163:\n                /* \"#utility.yul\":2078:2288   */\n              swap3\n              swap2\n              pop\n              pop\n              jump\t// out\n                /* \"#utility.yul\":2294:2412   */\n            tag_97:\n                /* \"#utility.yul\":2381:2405   */\n              tag_165\n                /* \"#utility.yul\":2399:2404   */\n              dup2\n                /* \"#utility.yul\":2381:2405   */\n              tag_92\n              jump\t// in\n            tag_165:\n                /* \"#utility.yul\":2376:2379   */\n              dup3\n                /* \"#utility.yul\":2369:2406   */\n              mstore\n                /* \"#utility.yul\":2294:2412   */\n              pop\n              pop\n              jump\t// out\n                /* \"#utility.yul\":2418:2640   */\n            tag_28:\n                /* \"#utility.yul\":2511:2515   */\n              0x00\n                /* \"#utility.yul\":2549:2551   */\n              0x20\n                /* \"#utility.yul\":2538:2547   */\n              dup3\n                /* \"#utility.yul\":2534:2552   */\n              add\n                /* \"#utility.yul\":2526:2552   */\n              swap1\n              pop\n                /* \"#utility.yul\":2562:2633   */\n              tag_167\n                /* \"#utility.yul\":2630:2631   */\n              0x00\n                /* \"#utility.yul\":2619:2628   */\n              dup4\n                /* \"#utility.yul\":2615:2632   */\n              add\n                /* \"#utility.yul\":2606:2612   */\n              dup5\n                /* \"#utility.yul\":2562:2633   */\n              tag_97\n              jump\t// in\n            tag_167:\n                /* \"#utility.yul\":2418:2640   */\n              swap3\n              swap2\n              pop\n              pop\n              jump\t// out\n                /* \"#utility.yul\":2646:2745   */\n            tag_98:\n                /* \"#utility.yul\":2698:2704   */\n              0x00\n                /* \"#utility.yul\":2732:2737   */\n              dup2\n                /* \"#utility.yul\":2726:2738   */\n              mload\n                /* \"#utility.yul\":2716:2738   */\n              swap1\n              pop\n                /* \"#utility.yul\":2646:2745   */\n              swap2\n              swap1\n              pop\n              jump\t// out\n                /* \"#utility.yul\":2751:2920   */\n            tag_99:\n                /* \"#utility.yul\":2835:2846   */\n              0x00\n                /* \"#utility.yul\":2869:2875   */\n              dup3\n                /* \"#utility.yul\":2864:2867   */\n              dup3\n                /* \"#utility.yul\":2857:2876   */\n              mstore\n                /* \"#utility.yul\":2909:2913   */\n              0x20\n                /* \"#utility.yul\":2904:2907   */\n              dup3\n                /* \"#utility.yul\":2900:2914   */\n              add\n                /* \"#utility.yul\":2885:2914   */\n              swap1\n              pop\n                /* \"#utility.yul\":2751:2920   */\n              swap3\n              swap2\n              pop\n              pop\n              jump\t// out\n                /* \"#utility.yul\":2926:3172   */\n            tag_100:\n                /* \"#utility.yul\":3007:3008   */\n              0x00\n                /* \"#utility.yul\":3017:3130   */\n            tag_171:\n                /* \"#utility.yul\":3031:3037   */\n              dup4\n                /* \"#utility.yul\":3028:3029   */\n              dup2\n                /* \"#utility.yul\":3025:3038   */\n              lt\n                /* \"#utility.yul\":3017:3130   */\n              iszero\n              tag_173\n              jumpi\n                /* \"#utility.yul\":3116:3117   */\n              dup1\n                /* \"#utility.yul\":3111:3114   */\n              dup3\n                /* \"#utility.yul\":3107:3118   */\n              add\n                /* \"#utility.yul\":3101:3119   */\n              mload\n                /* \"#utility.yul\":3097:3098   */\n              dup2\n                /* \"#utility.yul\":3092:3095   */\n              dup5\n                /* \"#utility.yul\":3088:3099   */\n              add\n                /* \"#utility.yul\":3081:3120   */\n              mstore\n                /* \"#utility.yul\":3053:3055   */\n              0x20\n                /* \"#utility.yul\":3050:3051   */\n              dup2\n                /* \"#utility.yul\":3046:3056   */\n              add\n                /* \"#utility.yul\":3041:3056   */\n              swap1\n              pop\n                /* \"#utility.yul\":3017:3130   */\n              jump(tag_171)\n            tag_173:\n                /* \"#utility.yul\":3164:3165   */\n              0x00\n                /* \"#utility.yul\":3155:3161   */\n              dup5\n                /* \"#utility.yul\":3150:3153   */\n              dup5\n                /* \"#utility.yul\":3146:3162   */\n              add\n                /* \"#utility.yul\":3139:3166   */\n              mstore\n                /* \"#utility.yul\":2988:3172   */\n              pop\n                /* \"#utility.yul\":2926:3172   */\n              pop\n              pop\n              pop\n              jump\t// out\n                /* \"#utility.yul\":3178:3280   */\n            tag_101:\n                /* \"#utility.yul\":3219:3225   */\n              0x00\n                /* \"#utility.yul\":3270:3272   */\n              0x1f\n                /* \"#utility.yul\":3266:3273   */\n              not\n                /* \"#utility.yul\":3261:3263   */\n              0x1f\n                /* \"#utility.yul\":3254:3259   */\n              dup4\n                /* \"#utility.yul\":3250:3264   */\n              add\n                /* \"#utility.yul\":3246:3274   */\n              and\n                /* \"#utility.yul\":3236:3274   */\n              swap1\n              pop\n                /* \"#utility.yul\":3178:3280   */\n              swap2\n              swap1\n              pop\n              jump\t// out\n                /* \"#utility.yul\":3286:3663   */\n            tag_102:\n                /* \"#utility.yul\":3374:3377   */\n              0x00\n                /* \"#utility.yul\":3402:3441   */\n              tag_176\n                /* \"#utility.yul\":3435:3440   */\n              dup3\n                /* \"#utility.yul\":3402:3441   */\n              tag_98\n              jump\t// in\n            tag_176:\n                /* \"#utility.yul\":3457:3528   */\n              tag_177\n                /* \"#utility.yul\":3521:3527   */\n              dup2\n                /* \"#utility.yul\":3516:3519   */\n              dup6\n                /* \"#utility.yul\":3457:3528   */\n              tag_99\n              jump\t// in\n            tag_177:\n                /* \"#utility.yul\":3450:3528   */\n              swap4\n              pop\n                /* \"#utility.yul\":3537:3602   */\n              tag_178\n                /* \"#utility.yul\":3595:3601   */\n              dup2\n                /* \"#utility.yul\":3590:3593   */\n              dup6\n                /* \"#utility.yul\":3583:3587   */\n              0x20\n                /* \"#utility.yul\":3576:3581   */\n              dup7\n                /* \"#utility.yul\":3572:3588   */\n              add\n                /* \"#utility.yul\":3537:3602   */\n              tag_100\n              jump\t// in\n            tag_178:\n                /* \"#utility.yul\":3627:3656   */\n              tag_179\n                /* \"#utility.yul\":3649:3655   */\n              dup2\n                /* \"#utility.yul\":3627:3656   */\n              tag_101\n              jump\t// in\n            tag_179:\n                /* \"#utility.yul\":3622:3625   */\n              dup5\n                /* \"#utility.yul\":3618:3657   */\n              add\n                /* \"#utility.yul\":3611:3657   */\n              swap2\n              pop\n                /* \"#utility.yul\":3378:3663   */\n              pop\n                /* \"#utility.yul\":3286:3663   */\n              swap3\n              swap2\n              pop\n              pop\n              jump\t// out\n                /* \"#utility.yul\":3669:3787   */\n            tag_103:\n                /* \"#utility.yul\":3756:3780   */\n              tag_181\n                /* \"#utility.yul\":3774:3779   */\n              dup2\n                /* \"#utility.yul\":3756:3780   */\n              tag_88\n              jump\t// in\n            tag_181:\n                /* \"#utility.yul\":3751:3754   */\n              dup3\n                /* \"#utility.yul\":3744:3781   */\n              mstore\n                /* \"#utility.yul\":3669:3787   */\n              pop\n              pop\n              jump\t// out\n                /* \"#utility.yul\":3793:3897   */\n            tag_104:\n                /* \"#utility.yul\":3838:3845   */\n              0x00\n                /* \"#utility.yul\":3867:3891   */\n              tag_183\n                /* \"#utility.yul\":3885:3890   */\n              dup3\n                /* \"#utility.yul\":3867:3891   */\n              tag_91\n              jump\t// in\n            tag_183:\n                /* \"#utility.yul\":3856:3891   */\n              swap1\n              pop\n                /* \"#utility.yul\":3793:3897   */\n              swap2\n              swap1\n              pop\n              jump\t// out\n                /* \"#utility.yul\":3903:4045   */\n            tag_105:\n                /* \"#utility.yul\":4006:4038   */\n              tag_185\n                /* \"#utility.yul\":4032:4037   */\n              dup2\n                /* \"#utility.yul\":4006:4038   */\n              tag_104\n              jump\t// in\n            tag_185:\n                /* \"#utility.yul\":4001:4004   */\n              dup3\n                /* \"#utility.yul\":3994:4039   */\n              mstore\n                /* \"#utility.yul\":3903:4045   */\n              pop\n              pop\n              jump\t// out\n                /* \"#utility.yul\":4051:4826   */\n            tag_34:\n                /* \"#utility.yul\":4286:4290   */\n              0x00\n                /* \"#utility.yul\":4324:4327   */\n              0xa0\n                /* \"#utility.yul\":4313:4322   */\n              dup3\n                /* \"#utility.yul\":4309:4328   */\n              add\n                /* \"#utility.yul\":4301:4328   */\n              swap1\n              pop\n                /* \"#utility.yul\":4374:4383   */\n              dup2\n                /* \"#utility.yul\":4368:4372   */\n              dup2\n                /* \"#utility.yul\":4364:4384   */\n              sub\n                /* \"#utility.yul\":4360:4361   */\n              0x00\n                /* \"#utility.yul\":4349:4358   */\n              dup4\n                /* \"#utility.yul\":4345:4362   */\n              add\n                /* \"#utility.yul\":4338:4385   */\n              mstore\n                /* \"#utility.yul\":4402:4480   */\n              tag_187\n                /* \"#utility.yul\":4475:4479   */\n              dup2\n                /* \"#utility.yul\":4466:4472   */\n              dup9\n                /* \"#utility.yul\":4402:4480   */\n              tag_102\n              jump\t// in\n            tag_187:\n                /* \"#utility.yul\":4394:4480   */\n              swap1\n              pop\n                /* \"#utility.yul\":4490:4562   */\n              tag_188\n                /* \"#utility.yul\":4558:4560   */\n              0x20\n                /* \"#utility.yul\":4547:4556   */\n              dup4\n                /* \"#utility.yul\":4543:4561   */\n              add\n                /* \"#utility.yul\":4534:4540   */\n              dup8\n                /* \"#utility.yul\":4490:4562   */\n              tag_103\n              jump\t// in\n            tag_188:\n                /* \"#utility.yul\":4572:4660   */\n              tag_189\n                /* \"#utility.yul\":4656:4658   */\n              0x40\n                /* \"#utility.yul\":4645:4654   */\n              dup4\n                /* \"#utility.yul\":4641:4659   */\n              add\n                /* \"#utility.yul\":4632:4638   */\n              dup7\n                /* \"#utility.yul\":4572:4660   */\n              tag_105\n              jump\t// in\n            tag_189:\n                /* \"#utility.yul\":4670:4736   */\n              tag_190\n                /* \"#utility.yul\":4732:4734   */\n              0x60\n                /* \"#utility.yul\":4721:4730   */\n              dup4\n                /* \"#utility.yul\":4717:4735   */\n              add\n                /* \"#utility.yul\":4708:4714   */\n              dup6\n                /* \"#utility.yul\":4670:4736   */\n              tag_96\n              jump\t// in\n            tag_190:\n                /* \"#utility.yul\":4746:4819   */\n              tag_191\n                /* \"#utility.yul\":4814:4817   */\n              0x80\n                /* \"#utility.yul\":4803:4812   */\n              dup4\n                /* \"#utility.yul\":4799:4818   */\n              add\n                /* \"#utility.yul\":4790:4796   */\n              dup5\n                /* \"#utility.yul\":4746:4819   */\n              tag_103\n              jump\t// in\n            tag_191:\n                /* \"#utility.yul\":4051:4826   */\n              swap7\n              swap6\n              pop\n              pop\n              pop\n              pop\n              pop\n              pop\n              jump\t// out\n                /* \"#utility.yul\":4832:5054   */\n            tag_39:\n                /* \"#utility.yul\":4925:4929   */\n              0x00\n                /* \"#utility.yul\":4963:4965   */\n              0x20\n                /* \"#utility.yul\":4952:4961   */\n              dup3\n                /* \"#utility.yul\":4948:4966   */\n              add\n                /* \"#utility.yul\":4940:4966   */\n              swap1\n              pop\n                /* \"#utility.yul\":4976:5047   */\n              tag_193\n                /* \"#utility.yul\":5044:5045   */\n              0x00\n                /* \"#utility.yul\":5033:5042   */\n              dup4\n                /* \"#utility.yul\":5029:5046   */\n              add\n                /* \"#utility.yul\":5020:5026   */\n              dup5\n                /* \"#utility.yul\":4976:5047   */\n              tag_103\n              jump\t// in\n            tag_193:\n                /* \"#utility.yul\":4832:5054   */\n              swap3\n              swap2\n              pop\n              pop\n              jump\t// out\n                /* \"#utility.yul\":5060:5177   */\n            tag_106:\n                /* \"#utility.yul\":5169:5170   */\n              0x00\n                /* \"#utility.yul\":5166:5167   */\n              dup1\n                /* \"#utility.yul\":5159:5171   */\n              revert\n                /* \"#utility.yul\":5183:5300   */\n            tag_107:\n                /* \"#utility.yul\":5292:5293   */\n              0x00\n                /* \"#utility.yul\":5289:5290   */\n              dup1\n                /* \"#utility.yul\":5282:5294   */\n              revert\n                /* \"#utility.yul\":5306:5486   */\n            tag_108:\n                /* \"#utility.yul\":5354:5431   */\n              0x4e487b7100000000000000000000000000000000000000000000000000000000\n                /* \"#utility.yul\":5351:5352   */\n              0x00\n                /* \"#utility.yul\":5344:5432   */\n              mstore\n                /* \"#utility.yul\":5451:5455   */\n              0x41\n                /* \"#utility.yul\":5448:5449   */\n              0x04\n                /* \"#utility.yul\":5441:5456   */\n              mstore\n                /* \"#utility.yul\":5475:5479   */\n              0x24\n                /* \"#utility.yul\":5472:5473   */\n              0x00\n                /* \"#utility.yul\":5465:5480   */\n              revert\n                /* \"#utility.yul\":5492:5773   */\n            tag_109:\n                /* \"#utility.yul\":5575:5602   */\n              tag_198\n                /* \"#utility.yul\":5597:5601   */\n              dup3\n                /* \"#utility.yul\":5575:5602   */\n              tag_101\n              jump\t// in\n            tag_198:\n                /* \"#utility.yul\":5567:5573   */\n              dup2\n                /* \"#utility.yul\":5563:5603   */\n              add\n                /* \"#utility.yul\":5705:5711   */\n              dup2\n                /* \"#utility.yul\":5693:5703   */\n              dup2\n                /* \"#utility.yul\":5690:5712   */\n              lt\n                /* \"#utility.yul\":5669:5687   */\n              0xffffffffffffffff\n                /* \"#utility.yul\":5657:5667   */\n              dup3\n                /* \"#utility.yul\":5654:5688   */\n              gt\n                /* \"#utility.yul\":5651:5713   */\n              or\n                /* \"#utility.yul\":5648:5736   */\n              iszero\n              tag_199\n              jumpi\n                /* \"#utility.yul\":5716:5734   */\n              tag_200\n              tag_108\n              jump\t// in\n            tag_200:\n                /* \"#utility.yul\":5648:5736   */\n            tag_199:\n                /* \"#utility.yul\":5756:5766   */\n              dup1\n                /* \"#utility.yul\":5752:5754   */\n              0x40\n                /* \"#utility.yul\":5745:5767   */\n              mstore\n                /* \"#utility.yul\":5535:5773   */\n              pop\n                /* \"#utility.yul\":5492:5773   */\n              pop\n              pop\n              jump\t// out\n                /* \"#utility.yul\":5779:5908   */\n            tag_110:\n                /* \"#utility.yul\":5813:5819   */\n              0x00\n                /* \"#utility.yul\":5840:5860   */\n              tag_202\n              tag_85\n              jump\t// in\n            tag_202:\n                /* \"#utility.yul\":5830:5860   */\n              swap1\n              pop\n                /* \"#utility.yul\":5869:5902   */\n              tag_203\n                /* \"#utility.yul\":5897:5901   */\n              dup3\n                /* \"#utility.yul\":5889:5895   */\n              dup3\n                /* \"#utility.yul\":5869:5902   */\n              tag_109\n              jump\t// in\n            tag_203:\n                /* \"#utility.yul\":5779:5908   */\n              swap2\n              swap1\n              pop\n              jump\t// out\n                /* \"#utility.yul\":5914:6222   */\n            tag_111:\n                /* \"#utility.yul\":5976:5980   */\n              0x00\n                /* \"#utility.yul\":6066:6084   */\n              0xffffffffffffffff\n                /* \"#utility.yul\":6058:6064   */\n              dup3\n                /* \"#utility.yul\":6055:6085   */\n              gt\n                /* \"#utility.yul\":6052:6108   */\n              iszero\n              tag_205\n              jumpi\n                /* \"#utility.yul\":6088:6106   */\n              tag_206\n              tag_108\n              jump\t// in\n            tag_206:\n                /* \"#utility.yul\":6052:6108   */\n            tag_205:\n                /* \"#utility.yul\":6126:6155   */\n              tag_207\n                /* \"#utility.yul\":6148:6154   */\n              dup3\n                /* \"#utility.yul\":6126:6155   */\n              tag_101\n              jump\t// in\n            tag_207:\n                /* \"#utility.yul\":6118:6155   */\n              swap1\n              pop\n                /* \"#utility.yul\":6210:6214   */\n              0x20\n                /* \"#utility.yul\":6204:6208   */\n              dup2\n                /* \"#utility.yul\":6200:6215   */\n              add\n                /* \"#utility.yul\":6192:6215   */\n              swap1\n              pop\n                /* \"#utility.yul\":5914:6222   */\n              swap2\n              swap1\n              pop\n              jump\t// out\n                /* \"#utility.yul\":6228:6374   */\n            tag_112:\n                /* \"#utility.yul\":6325:6331   */\n              dup3\n                /* \"#utility.yul\":6320:6323   */\n              dup2\n                /* \"#utility.yul\":6315:6318   */\n              dup4\n                /* \"#utility.yul\":6302:6332   */\n              calldatacopy\n                /* \"#utility.yul\":6366:6367   */\n              0x00\n                /* \"#utility.yul\":6357:6363   */\n              dup4\n                /* \"#utility.yul\":6352:6355   */\n              dup4\n                /* \"#utility.yul\":6348:6364   */\n              add\n                /* \"#utility.yul\":6341:6368   */\n              mstore\n                /* \"#utility.yul\":6228:6374   */\n              pop\n              pop\n              pop\n              jump\t// out\n                /* \"#utility.yul\":6380:6805   */\n            tag_113:\n                /* \"#utility.yul\":6458:6463   */\n              0x00\n                /* \"#utility.yul\":6483:6549   */\n              tag_210\n                /* \"#utility.yul\":6499:6548   */\n              tag_211\n                /* \"#utility.yul\":6541:6547   */\n              dup5\n                /* \"#utility.yul\":6499:6548   */\n              tag_111\n              jump\t// in\n            tag_211:\n                /* \"#utility.yul\":6483:6549   */\n              tag_110\n              jump\t// in\n            tag_210:\n                /* \"#utility.yul\":6474:6549   */\n              swap1\n              pop\n                /* \"#utility.yul\":6572:6578   */\n              dup3\n                /* \"#utility.yul\":6565:6570   */\n              dup2\n                /* \"#utility.yul\":6558:6579   */\n              mstore\n                /* \"#utility.yul\":6610:6614   */\n              0x20\n                /* \"#utility.yul\":6603:6608   */\n              dup2\n                /* \"#utility.yul\":6599:6615   */\n              add\n                /* \"#utility.yul\":6648:6651   */\n              dup5\n                /* \"#utility.yul\":6639:6645   */\n              dup5\n                /* \"#utility.yul\":6634:6637   */\n              dup5\n                /* \"#utility.yul\":6630:6646   */\n              add\n                /* \"#utility.yul\":6627:6652   */\n              gt\n                /* \"#utility.yul\":6624:6736   */\n              iszero\n              tag_212\n              jumpi\n                /* \"#utility.yul\":6655:6734   */\n              tag_213\n              tag_107\n              jump\t// in\n            tag_213:\n                /* \"#utility.yul\":6624:6736   */\n            tag_212:\n                /* \"#utility.yul\":6745:6799   */\n              tag_214\n                /* \"#utility.yul\":6792:6798   */\n              dup5\n                /* \"#utility.yul\":6787:6790   */\n              dup3\n                /* \"#utility.yul\":6782:6785   */\n              dup6\n                /* \"#utility.yul\":6745:6799   */\n              tag_112\n              jump\t// in\n            tag_214:\n                /* \"#utility.yul\":6464:6805   */\n              pop\n                /* \"#utility.yul\":6380:6805   */\n              swap4\n              swap3\n              pop\n              pop\n              pop\n              jump\t// out\n                /* \"#utility.yul\":6825:7165   */\n            tag_114:\n                /* \"#utility.yul\":6881:6886   */\n              0x00\n                /* \"#utility.yul\":6930:6933   */\n              dup3\n                /* \"#utility.yul\":6923:6927   */\n              0x1f\n                /* \"#utility.yul\":6915:6921   */\n              dup4\n                /* \"#utility.yul\":6911:6928   */\n              add\n                /* \"#utility.yul\":6907:6934   */\n              slt\n                /* \"#utility.yul\":6897:7019   */\n              tag_216\n              jumpi\n                /* \"#utility.yul\":6938:7017   */\n              tag_217\n              tag_106\n              jump\t// in\n            tag_217:\n                /* \"#utility.yul\":6897:7019   */\n            tag_216:\n                /* \"#utility.yul\":7055:7061   */\n              dup2\n                /* \"#utility.yul\":7042:7062   */\n              calldataload\n                /* \"#utility.yul\":7080:7159   */\n              tag_218\n                /* \"#utility.yul\":7155:7158   */\n              dup5\n                /* \"#utility.yul\":7147:7153   */\n              dup3\n                /* \"#utility.yul\":7140:7144   */\n              0x20\n                /* \"#utility.yul\":7132:7138   */\n              dup7\n                /* \"#utility.yul\":7128:7145   */\n              add\n                /* \"#utility.yul\":7080:7159   */\n              tag_113\n              jump\t// in\n            tag_218:\n                /* \"#utility.yul\":7071:7159   */\n              swap2\n              pop\n                /* \"#utility.yul\":6887:7165   */\n              pop\n                /* \"#utility.yul\":6825:7165   */\n              swap3\n              swap2\n              pop\n              pop\n              jump\t// out\n                /* \"#utility.yul\":7171:7970   */\n            tag_43:\n                /* \"#utility.yul\":7258:7264   */\n              0x00\n                /* \"#utility.yul\":7266:7272   */\n              dup1\n                /* \"#utility.yul\":7274:7280   */\n              0x00\n                /* \"#utility.yul\":7323:7325   */\n              0x60\n                /* \"#utility.yul\":7311:7320   */\n              dup5\n                /* \"#utility.yul\":7302:7309   */\n              dup7\n                /* \"#utility.yul\":7298:7321   */\n              sub\n                /* \"#utility.yul\":7294:7326   */\n              slt\n                /* \"#utility.yul\":7291:7410   */\n              iszero\n              tag_220\n              jumpi\n                /* \"#utility.yul\":7329:7408   */\n              tag_221\n              tag_86\n              jump\t// in\n            tag_221:\n                /* \"#utility.yul\":7291:7410   */\n            tag_220:\n                /* \"#utility.yul\":7477:7478   */\n              0x00\n                /* \"#utility.yul\":7466:7475   */\n              dup5\n                /* \"#utility.yul\":7462:7479   */\n              add\n                /* \"#utility.yul\":7449:7480   */\n              calldataload\n                /* \"#utility.yul\":7507:7525   */\n              0xffffffffffffffff\n                /* \"#utility.yul\":7499:7505   */\n              dup2\n                /* \"#utility.yul\":7496:7526   */\n              gt\n                /* \"#utility.yul\":7493:7610   */\n              iszero\n              tag_222\n              jumpi\n                /* \"#utility.yul\":7529:7608   */\n              tag_223\n              tag_87\n              jump\t// in\n            tag_223:\n                /* \"#utility.yul\":7493:7610   */\n            tag_222:\n                /* \"#utility.yul\":7634:7697   */\n              tag_224\n                /* \"#utility.yul\":7689:7696   */\n              dup7\n                /* \"#utility.yul\":7680:7686   */\n              dup3\n                /* \"#utility.yul\":7669:7678   */\n              dup8\n                /* \"#utility.yul\":7665:7687   */\n              add\n                /* \"#utility.yul\":7634:7697   */\n              tag_114\n              jump\t// in\n            tag_224:\n                /* \"#utility.yul\":7624:7697   */\n              swap4\n              pop\n                /* \"#utility.yul\":7420:7707   */\n              pop\n                /* \"#utility.yul\":7746:7748   */\n              0x20\n                /* \"#utility.yul\":7772:7825   */\n              tag_225\n                /* \"#utility.yul\":7817:7824   */\n              dup7\n                /* \"#utility.yul\":7808:7814   */\n              dup3\n                /* \"#utility.yul\":7797:7806   */\n              dup8\n                /* \"#utility.yul\":7793:7815   */\n              add\n                /* \"#utility.yul\":7772:7825   */\n              tag_90\n              jump\t// in\n            tag_225:\n                /* \"#utility.yul\":7762:7825   */\n              swap3\n              pop\n                /* \"#utility.yul\":7717:7835   */\n              pop\n                /* \"#utility.yul\":7874:7876   */\n              0x40\n                /* \"#utility.yul\":7900:7953   */\n              tag_226\n                /* \"#utility.yul\":7945:7952   */\n              dup7\n                /* \"#utility.yul\":7936:7942   */\n              dup3\n                /* \"#utility.yul\":7925:7934   */\n              dup8\n                /* \"#utility.yul\":7921:7943   */\n              add\n                /* \"#utility.yul\":7900:7953   */\n              tag_94\n              jump\t// in\n            tag_226:\n                /* \"#utility.yul\":7890:7953   */\n              swap2\n              pop\n                /* \"#utility.yul\":7845:7963   */\n              pop\n                /* \"#utility.yul\":7171:7970   */\n              swap3\n              pop\n              swap3\n              pop\n              swap3\n              jump\t// out\n                /* \"#utility.yul\":7976:8156   */\n            tag_115:\n                /* \"#utility.yul\":8024:8101   */\n              0x4e487b7100000000000000000000000000000000000000000000000000000000\n                /* \"#utility.yul\":8021:8022   */\n              0x00\n                /* \"#utility.yul\":8014:8102   */\n              mstore\n                /* \"#utility.yul\":8121:8125   */\n              0x11\n                /* \"#utility.yul\":8118:8119   */\n              0x04\n                /* \"#utility.yul\":8111:8126   */\n              mstore\n                /* \"#utility.yul\":8145:8149   */\n              0x24\n                /* \"#utility.yul\":8142:8143   */\n              0x00\n                /* \"#utility.yul\":8135:8150   */\n              revert\n                /* \"#utility.yul\":8162:8395   */\n            tag_59:\n                /* \"#utility.yul\":8201:8204   */\n              0x00\n                /* \"#utility.yul\":8224:8248   */\n              tag_229\n                /* \"#utility.yul\":8242:8247   */\n              dup3\n                /* \"#utility.yul\":8224:8248   */\n              tag_88\n              jump\t// in\n            tag_229:\n                /* \"#utility.yul\":8215:8248   */\n              swap2\n              pop\n                /* \"#utility.yul\":8270:8336   */\n              0xffffffffffffffffffffffffffffffffffffffffffffffffffffffffffffffff\n                /* \"#utility.yul\":8263:8268   */\n              dup3\n                /* \"#utility.yul\":8260:8337   */\n              sub\n                /* \"#utility.yul\":8257:8360   */\n              tag_230\n              jumpi\n                /* \"#utility.yul\":8340:8358   */\n              tag_231\n              tag_115\n              jump\t// in\n            tag_231:\n                /* \"#utility.yul\":8257:8360   */\n            tag_230:\n                /* \"#utility.yul\":8387:8388   */\n              0x01\n                /* \"#utility.yul\":8380:8385   */\n              dup3\n                /* \"#utility.yul\":8376:8389   */\n              add\n                /* \"#utility.yul\":8369:8389   */\n              swap1\n              pop\n                /* \"#utility.yul\":8162:8395   */\n              swap2\n              swap1\n              pop\n              jump\t// out\n                /* \"#utility.yul\":8401:8581   */\n            tag_116:\n                /* \"#utility.yul\":8449:8526   */\n              0x4e487b7100000000000000000000000000000000000000000000000000000000\n                /* \"#utility.yul\":8446:8447   */\n              0x00\n                /* \"#utility.yul\":8439:8527   */\n              mstore\n                /* \"#utility.yul\":8546:8550   */\n              0x22\n                /* \"#utility.yul\":8543:8544   */\n              0x04\n                /* \"#utility.yul\":8536:8551   */\n              mstore\n                /* \"#utility.yul\":8570:8574   */\n              0x24\n                /* \"#utility.yul\":8567:8568   */\n              0x00\n                /* \"#utility.yul\":8560:8575   */\n              revert\n                /* \"#utility.yul\":8587:8907   */\n            tag_61:\n                /* \"#utility.yul\":8631:8637   */\n              0x00\n                /* \"#utility.yul\":8668:8669   */\n              0x02\n                /* \"#utility.yul\":8662:8666   */\n              dup3\n                /* \"#utility.yul\":8658:8670   */\n              div\n                /* \"#utility.yul\":8648:8670   */\n              swap1\n              pop\n                /* \"#utility.yul\":8715:8716   */\n              0x01\n                /* \"#utility.yul\":8709:8713   */\n              dup3\n                /* \"#utility.yul\":8705:8717   */\n              and\n                /* \"#utility.yul\":8736:8754   */\n              dup1\n                /* \"#utility.yul\":8726:8807   */\n              tag_234\n              jumpi\n                /* \"#utility.yul\":8792:8796   */\n              0x7f\n                /* \"#utility.yul\":8784:8790   */\n              dup3\n                /* \"#utility.yul\":8780:8797   */\n              and\n                /* \"#utility.yul\":8770:8797   */\n              swap2\n              pop\n                /* \"#utility.yul\":8726:8807   */\n            tag_234:\n                /* \"#utility.yul\":8854:8856   */\n              0x20\n                /* \"#utility.yul\":8846:8852   */\n              dup3\n                /* \"#utility.yul\":8843:8857   */\n              lt\n                /* \"#utility.yul\":8823:8841   */\n              dup2\n                /* \"#utility.yul\":8820:8858   */\n              sub\n                /* \"#utility.yul\":8817:8901   */\n              tag_235\n              jumpi\n                /* \"#utility.yul\":8873:8891   */\n              tag_236\n              tag_116\n              jump\t// in\n            tag_236:\n                /* \"#utility.yul\":8817:8901   */\n            tag_235:\n                /* \"#utility.yul\":8638:8907   */\n              pop\n                /* \"#utility.yul\":8587:8907   */\n              swap2\n              swap1\n              pop\n              jump\t// out\n                /* \"#utility.yul\":8913:9054   */\n            tag_117:\n                /* \"#utility.yul\":8962:8966   */\n              0x00\n                /* \"#utility.yul\":8985:8988   */\n              dup2\n                /* \"#utility.yul\":8977:8988   */\n              swap1\n              pop\n                /* \"#utility.yul\":9008:9011   */\n              dup2\n                /* \"#utility.yul\":9005:9006   */\n              0x00\n                /* \"#utility.yul\":8998:9012   */\n              mstore\n                /* \"#utility.yul\":9042:9046   */\n              0x20\n                /* \"#utility.yul\":9039:9040   */\n              0x00\n                /* \"#utility.yul\":9029:9047   */\n              keccak256\n                /* \"#utility.yul\":9021:9047   */\n              swap1\n              pop\n                /* \"#utility.yul\":8913:9054   */\n              swap2\n              swap1\n              pop\n              jump\t// out\n                /* \"#utility.yul\":9060:9153   */\n            tag_118:\n                /* \"#utility.yul\":9097:9103   */\n              0x00\n                /* \"#utility.yul\":9144:9146   */\n              0x20\n                /* \"#utility.yul\":9139:9141   */\n              0x1f\n                /* \"#utility.yul\":9132:9137   */\n              dup4\n                /* \"#utility.yul\":9128:9142   */\n              add\n                /* \"#utility.yul\":9124:9147   */\n              div\n                /* \"#utility.yul\":9114:9147   */\n              swap1\n              pop\n                /* \"#utility.yul\":9060:9153   */\n              swap2\n              swap1\n              pop\n              jump\t// out\n                /* \"#utility.yul\":9159:9266   */\n            tag_119:\n                /* \"#utility.yul\":9203:9211   */\n              0x00\n                /* \"#utility.yul\":9253:9258   */\n              dup3\n                /* \"#utility.yul\":9247:9251   */\n              dup3\n                /* \"#utility.yul\":9243:9259   */\n              shl\n                /* \"#utility.yul\":9222:9259   */\n              swap1\n              pop\n                /* \"#utility.yul\":9159:9266   */\n              swap3\n              swap2\n              pop\n              pop\n              jump\t// out\n                /* \"#utility.yul\":9272:9665   */\n            tag_120:\n                /* \"#utility.yul\":9341:9347   */\n              0x00\n                /* \"#utility.yul\":9391:9392   */\n              0x08\n                /* \"#utility.yul\":9379:9389   */\n              dup4\n                /* \"#utility.yul\":9375:9393   */\n              mul\n                /* \"#utility.yul\":9414:9511   */\n              tag_241\n                /* \"#utility.yul\":9444:9510   */\n              0xffffffffffffffffffffffffffffffffffffffffffffffffffffffffffffffff\n                /* \"#utility.yul\":9433:9442   */\n              dup3\n                /* \"#utility.yul\":9414:9511   */\n              tag_119\n              jump\t// in\n            tag_241:\n                /* \"#utility.yul\":9532:9571   */\n              tag_242\n                /* \"#utility.yul\":9562:9570   */\n              dup7\n                /* \"#utility.yul\":9551:9560   */\n              dup4\n                /* \"#utility.yul\":9532:9571   */\n              tag_119\n              jump\t// in\n            tag_242:\n                /* \"#utility.yul\":9520:9571   */\n              swap6\n              pop\n                /* \"#utility.yul\":9604:9608   */\n              dup1\n                /* \"#utility.yul\":9600:9609   */\n              not\n                /* \"#utility.yul\":9593:9598   */\n              dup5\n                /* \"#utility.yul\":9589:9610   */\n              and\n                /* \"#utility.yul\":9580:9610   */\n              swap4\n              pop\n                /* \"#utility.yul\":9653:9657   */\n              dup1\n                /* \"#utility.yul\":9643:9651   */\n              dup7\n                /* \"#utility.yul\":9639:9658   */\n              and\n                /* \"#utility.yul\":9632:9637   */\n              dup5\n                /* \"#utility.yul\":9629:9659   */\n              or\n                /* \"#utility.yul\":9619:9659   */\n              swap3\n              pop\n                /* \"#utility.yul\":9348:9665   */\n              pop\n              pop\n                /* \"#utility.yul\":9272:9665   */\n              swap4\n              swap3\n              pop\n              pop\n              pop\n              jump\t// out\n                /* \"#utility.yul\":9671:9731   */\n            tag_121:\n                /* \"#utility.yul\":9699:9702   */\n              0x00\n                /* \"#utility.yul\":9720:9725   */\n              dup2\n                /* \"#utility.yul\":9713:9725   */\n              swap1\n              pop\n                /* \"#utility.yul\":9671:9731   */\n              swap2\n              swap1\n              pop\n              jump\t// out\n                /* \"#utility.yul\":9737:9879   */\n            tag_122:\n                /* \"#utility.yul\":9787:9796   */\n              0x00\n                /* \"#utility.yul\":9820:9873   */\n              tag_245\n                /* \"#utility.yul\":9838:9872   */\n              tag_246\n                /* \"#utility.yul\":9847:9871   */\n              tag_247\n                /* \"#utility.yul\":9865:9870   */\n              dup5\n                /* \"#utility.yul\":9847:9871   */\n              tag_88\n              jump\t// in\n            tag_247:\n                /* \"#utility.yul\":9838:9872   */\n              tag_121\n              jump\t// in\n            tag_246:\n                /* \"#utility.yul\":9820:9873   */\n              tag_88\n              jump\t// in\n            tag_245:\n                /* \"#utility.yul\":9807:9873   */\n              swap1\n              pop\n                /* \"#utility.yul\":9737:9879   */\n              swap2\n              swap1\n              pop\n              jump\t// out\n                /* \"#utility.yul\":9885:9960   */\n            tag_123:\n                /* \"#utility.yul\":9928:9931   */\n              0x00\n                /* \"#utility.yul\":9949:9954   */\n              dup2\n                /* \"#utility.yul\":9942:9954   */\n              swap1\n              pop\n                /* \"#utility.yul\":9885:9960   */\n              swap2\n              swap1\n              pop\n              jump\t// out\n                /* \"#utility.yul\":9966:10235   */\n            tag_124:\n                /* \"#utility.yul\":10076:10115   */\n              tag_250\n                /* \"#utility.yul\":10107:10114   */\n              dup4\n                /* \"#utility.yul\":10076:10115   */\n              tag_122\n              jump\t// in\n            tag_250:\n                /* \"#utility.yul\":10137:10228   */\n              tag_251\n                /* \"#utility.yul\":10186:10227   */\n              tag_252\n                /* \"#utility.yul\":10210:10226   */\n              dup3\n                /* \"#utility.yul\":10186:10227   */\n              tag_123\n              jump\t// in\n            tag_252:\n                /* \"#utility.yul\":10178:10184   */\n              dup5\n                /* \"#utility.yul\":10171:10175   */\n              dup5\n                /* \"#utility.yul\":10165:10176   */\n              sload\n                /* \"#utility.yul\":10137:10228   */\n              tag_120\n              jump\t// in\n            tag_251:\n                /* \"#utility.yul\":10131:10135   */\n              dup3\n                /* \"#utility.yul\":10124:10229   */\n              sstore\n                /* \"#utility.yul\":10042:10235   */\n              pop\n                /* \"#utility.yul\":9966:10235   */\n              pop\n              pop\n              pop\n              jump\t// out\n                /* \"#utility.yul\":10241:10314   */\n            tag_125:\n                /* \"#utility.yul\":10286:10289   */\n              0x00\n                /* \"#utility.yul\":10241:10314   */\n              swap1\n              jump\t// out\n                /* \"#utility.yul\":10320:10509   */\n            tag_126:\n                /* \"#utility.yul\":10397:10429   */\n              tag_255\n              tag_125\n              jump\t// in\n            tag_255:\n                /* \"#utility.yul\":10438:10503   */\n              tag_256\n                /* \"#utility.yul\":10496:10502   */\n              dup2\n                /* \"#utility.yul\":10488:10494   */\n              dup5\n                /* \"#utility.yul\":10482:10486   */\n              dup5\n                /* \"#utility.yul\":10438:10503   */\n              tag_124\n              jump\t// in\n            tag_256:\n                /* \"#utility.yul\":10373:10509   */\n              pop\n                /* \"#utility.yul\":10320:10509   */\n              pop\n              pop\n              jump\t// out\n                /* \"#utility.yul\":10515:10701   */\n            tag_127:\n                /* \"#utility.yul\":10575:10695   */\n            tag_258:\n                /* \"#utility.yul\":10592:10595   */\n              dup2\n                /* \"#utility.yul\":10585:10590   */\n              dup2\n                /* \"#utility.yul\":10582:10596   */\n              lt\n                /* \"#utility.yul\":10575:10695   */\n              iszero\n              tag_260\n              jumpi\n                /* \"#utility.yul\":10646:10685   */\n              tag_261\n                /* \"#utility.yul\":10683:10684   */\n              0x00\n                /* \"#utility.yul\":10676:10681   */\n              dup3\n                /* \"#utility.yul\":10646:10685   */\n              tag_126\n              jump\t// in\n            tag_261:\n                /* \"#utility.yul\":10619:10620   */\n              0x01\n                /* \"#utility.yul\":10612:10617   */\n              dup2\n                /* \"#utility.yul\":10608:10621   */\n              add\n                /* \"#utility.yul\":10599:10621   */\n              swap1\n              pop\n                /* \"#utility.yul\":10575:10695   */\n              jump(tag_258)\n            tag_260:\n                /* \"#utility.yul\":10515:10701   */\n              pop\n              pop\n              jump\t// out\n                /* \"#utility.yul\":10707:11250   */\n            tag_128:\n                /* \"#utility.yul\":10808:10810   */\n              0x1f\n                /* \"#utility.yul\":10803:10806   */\n              dup3\n                /* \"#utility.yul\":10800:10811   */\n              gt\n                /* \"#utility.yul\":10797:11243   */\n              iszero\n              tag_263\n              jumpi\n                /* \"#utility.yul\":10842:10880   */\n              tag_264\n                /* \"#utility.yul\":10874:10879   */\n              dup2\n                /* \"#utility.yul\":10842:10880   */\n              tag_117\n              jump\t// in\n            tag_264:\n                /* \"#utility.yul\":10926:10955   */\n              tag_265\n                /* \"#utility.yul\":10944:10954   */\n              dup5\n                /* \"#utility.yul\":10926:10955   */\n              tag_118\n              jump\t// in\n            tag_265:\n                /* \"#utility.yul\":10916:10924   */\n              dup2\n                /* \"#utility.yul\":10912:10956   */\n              add\n                /* \"#utility.yul\":11109:11111   */\n              0x20\n                /* \"#utility.yul\":11097:11107   */\n              dup6\n                /* \"#utility.yul\":11094:11112   */\n              lt\n                /* \"#utility.yul\":11091:11140   */\n              iszero\n              tag_266\n              jumpi\n                /* \"#utility.yul\":11130:11138   */\n              dup2\n                /* \"#utility.yul\":11115:11138   */\n              swap1\n              pop\n                /* \"#utility.yul\":11091:11140   */\n            tag_266:\n                /* \"#utility.yul\":11153:11233   */\n              tag_267\n                /* \"#utility.yul\":11209:11231   */\n              tag_268\n                /* \"#utility.yul\":11227:11230   */\n              dup6\n                /* \"#utility.yul\":11209:11231   */\n              tag_118\n              jump\t// in\n            tag_268:\n                /* \"#utility.yul\":11199:11207   */\n              dup4\n                /* \"#utility.yul\":11195:11232   */\n              add\n                /* \"#utility.yul\":11182:11193   */\n              dup3\n                /* \"#utility.yul\":11153:11233   */\n              tag_127\n              jump\t// in\n            tag_267:\n                /* \"#utility.yul\":10812:11243   */\n              pop\n              pop\n                /* \"#utility.yul\":10797:11243   */\n            tag_263:\n                /* \"#utility.yul\":10707:11250   */\n              pop\n              pop\n              pop\n              jump\t// out\n                /* \"#utility.yul\":11256:11373   */\n            tag_129:\n                /* \"#utility.yul\":11310:11318   */\n              0x00\n                /* \"#utility.yul\":11360:11365   */\n              dup3\n                /* \"#utility.yul\":11354:11358   */\n              dup3\n                /* \"#utility.yul\":11350:11366   */\n              shr\n                /* \"#utility.yul\":11329:11366   */\n              swap1\n              pop\n                /* \"#utility.yul\":11256:11373   */\n              swap3\n              swap2\n              pop\n              pop\n              jump\t// out\n                /* \"#utility.yul\":11379:11548   */\n            tag_130:\n                /* \"#utility.yul\":11423:11429   */\n              0x00\n                /* \"#utility.yul\":11456:11507   */\n              tag_271\n                /* \"#utility.yul\":11504:11505   */\n              0x00\n                /* \"#utility.yul\":11500:11506   */\n              not\n                /* \"#utility.yul\":11492:11497   */\n              dup5\n                /* \"#utility.yul\":11489:11490   */\n              0x08\n                /* \"#utility.yul\":11485:11498   */\n              mul\n                /* \"#utility.yul\":11456:11507   */\n              tag_129\n              jump\t// in\n            tag_271:\n                /* \"#utility.yul\":11452:11508   */\n              not\n                /* \"#utility.yul\":11537:11541   */\n              dup1\n                /* \"#utility.yul\":11531:11535   */\n              dup4\n                /* \"#utility.yul\":11527:11542   */\n              and\n                /* \"#utility.yul\":11517:11542   */\n              swap2\n              pop\n                /* \"#utility.yul\":11430:11548   */\n              pop\n                /* \"#utility.yul\":11379:11548   */\n              swap3\n              swap2\n              pop\n              pop\n              jump\t// out\n                /* \"#utility.yul\":11553:11848   */\n            tag_131:\n                /* \"#utility.yul\":11629:11633   */\n              0x00\n                /* \"#utility.yul\":11775:11804   */\n              tag_273\n                /* \"#utility.yul\":11800:11803   */\n              dup4\n                /* \"#utility.yul\":11794:11798   */\n              dup4\n                /* \"#utility.yul\":11775:11804   */\n              tag_130\n              jump\t// in\n            tag_273:\n                /* \"#utility.yul\":11767:11804   */\n              swap2\n              pop\n                /* \"#utility.yul\":11837:11840   */\n              dup3\n                /* \"#utility.yul\":11834:11835   */\n              0x02\n                /* \"#utility.yul\":11830:11841   */\n              mul\n                /* \"#utility.yul\":11824:11828   */\n              dup3\n                /* \"#utility.yul\":11821:11842   */\n              or\n                /* \"#utility.yul\":11813:11842   */\n              swap1\n              pop\n                /* \"#utility.yul\":11553:11848   */\n              swap3\n              swap2\n              pop\n              pop\n              jump\t// out\n                /* \"#utility.yul\":11853:13248   */\n            tag_71:\n                /* \"#utility.yul\":11970:12007   */\n              tag_275\n                /* \"#utility.yul\":12003:12006   */\n              dup3\n                /* \"#utility.yul\":11970:12007   */\n              tag_98\n              jump\t// in\n            tag_275:\n                /* \"#utility.yul\":12072:12090   */\n              0xffffffffffffffff\n                /* \"#utility.yul\":12064:12070   */\n              dup2\n                /* \"#utility.yul\":12061:12091   */\n              gt\n                /* \"#utility.yul\":12058:12114   */\n              iszero\n              tag_276\n              jumpi\n                /* \"#utility.yul\":12094:12112   */\n              tag_277\n              tag_108\n              jump\t// in\n            tag_277:\n                /* \"#utility.yul\":12058:12114   */\n            tag_276:\n                /* \"#utility.yul\":12138:12176   */\n              tag_278\n                /* \"#utility.yul\":12170:12174   */\n              dup3\n                /* \"#utility.yul\":12164:12175   */\n              sload\n                /* \"#utility.yul\":12138:12176   */\n              tag_61\n              jump\t// in\n            tag_278:\n                /* \"#utility.yul\":12223:12290   */\n              tag_279\n                /* \"#utility.yul\":12283:12289   */\n              dup3\n                /* \"#utility.yul\":12275:12281   */\n              dup3\n                /* \"#utility.yul\":12269:12273   */\n              dup6\n                /* \"#utility.yul\":12223:12290   */\n              tag_128\n              jump\t// in\n            tag_279:\n                /* \"#utility.yul\":12317:12318   */\n              0x00\n                /* \"#utility.yul\":12341:12345   */\n              0x20\n                /* \"#utility.yul\":12328:12345   */\n              swap1\n              pop\n                /* \"#utility.yul\":12373:12375   */\n              0x1f\n                /* \"#utility.yul\":12365:12371   */\n              dup4\n                /* \"#utility.yul\":12362:12376   */\n              gt\n                /* \"#utility.yul\":12390:12391   */\n              0x01\n                /* \"#utility.yul\":12385:13003   */\n              dup2\n              eq\n              tag_281\n              jumpi\n                /* \"#utility.yul\":13047:13048   */\n              0x00\n                /* \"#utility.yul\":13064:13070   */\n              dup5\n                /* \"#utility.yul\":13061:13138   */\n              iszero\n              tag_282\n              jumpi\n                /* \"#utility.yul\":13113:13122   */\n              dup3\n                /* \"#utility.yul\":13108:13111   */\n              dup8\n                /* \"#utility.yul\":13104:13123   */\n              add\n                /* \"#utility.yul\":13098:13124   */\n              mload\n                /* \"#utility.yul\":13089:13124   */\n              swap1\n              pop\n                /* \"#utility.yul\":13061:13138   */\n            tag_282:\n                /* \"#utility.yul\":13164:13231   */\n              tag_283\n                /* \"#utility.yul\":13224:13230   */\n              dup6\n                /* \"#utility.yul\":13217:13222   */\n              dup3\n                /* \"#utility.yul\":13164:13231   */\n              tag_131\n              jump\t// in\n            tag_283:\n                /* \"#utility.yul\":13158:13162   */\n              dup7\n                /* \"#utility.yul\":13151:13232   */\n              sstore\n                /* \"#utility.yul\":13020:13242   */\n              pop\n                /* \"#utility.yul\":12355:13242   */\n              jump(tag_280)\n                /* \"#utility.yul\":12385:13003   */\n            tag_281:\n                /* \"#utility.yul\":12437:12441   */\n              0x1f\n                /* \"#utility.yul\":12433:12442   */\n              not\n                /* \"#utility.yul\":12425:12431   */\n              dup5\n                /* \"#utility.yul\":12421:12443   */\n              and\n                /* \"#utility.yul\":12471:12508   */\n              tag_284\n                /* \"#utility.yul\":12503:12507   */\n              dup7\n                /* \"#utility.yul\":12471:12508   */\n              tag_117\n              jump\t// in\n            tag_284:\n                /* \"#utility.yul\":12530:12531   */\n              0x00\n                /* \"#utility.yul\":12544:12752   */\n            tag_285:\n                /* \"#utility.yul\":12558:12565   */\n              dup3\n                /* \"#utility.yul\":12555:12556   */\n              dup2\n                /* \"#utility.yul\":12552:12566   */\n              lt\n                /* \"#utility.yul\":12544:12752   */\n              iszero\n              tag_287\n              jumpi\n                /* \"#utility.yul\":12637:12646   */\n              dup5\n                /* \"#utility.yul\":12632:12635   */\n              dup10\n                /* \"#utility.yul\":12628:12647   */\n              add\n                /* \"#utility.yul\":12622:12648   */\n              mload\n                /* \"#utility.yul\":12614:12620   */\n              dup3\n                /* \"#utility.yul\":12607:12649   */\n              sstore\n                /* \"#utility.yul\":12688:12689   */\n              0x01\n                /* \"#utility.yul\":12680:12686   */\n              dup3\n                /* \"#utility.yul\":12676:12690   */\n              add\n                /* \"#utility.yul\":12666:12690   */\n              swap2\n              pop\n                /* \"#utility.yul\":12735:12737   */\n              0x20\n                /* \"#utility.yul\":12724:12733   */\n              dup6\n                /* \"#utility.yul\":12720:12738   */\n              add\n                /* \"#utility.yul\":12707:12738   */\n              swap5\n              pop\n                /* \"#utility.yul\":12581:12585   */\n              0x20\n                /* \"#utility.yul\":12578:12579   */\n              dup2\n                /* \"#utility.yul\":12574:12586   */\n              add\n                /* \"#utility.yul\":12569:12586   */\n              swap1\n              pop\n                /* \"#utility.yul\":12544:12752   */\n              jump(tag_285)\n            tag_287:\n                /* \"#utility.yul\":12780:12786   */\n              dup7\n                /* \"#utility.yul\":12771:12778   */\n              dup4\n                /* \"#utility.yul\":12768:12787   */\n              lt\n                /* \"#utility.yul\":12765:12944   */\n              iszero\n              tag_288\n              jumpi\n                /* \"#utility.yul\":12838:12847   */\n              dup5\n                /* \"#utility.yul\":12833:12836   */\n              dup10\n                /* \"#utility.yul\":12829:12848   */\n              add\n                /* \"#utility.yul\":12823:12849   */\n              mload\n                /* \"#utility.yul\":12881:12929   */\n              tag_289\n                /* \"#utility.yul\":12923:12927   */\n              0x1f\n                /* \"#utility.yul\":12915:12921   */\n              dup10\n                /* \"#utility.yul\":12911:12928   */\n              and\n                /* \"#utility.yul\":12900:12909   */\n              dup3\n                /* \"#utility.yul\":12881:12929   */\n              tag_130\n              jump\t// in\n            tag_289:\n                /* \"#utility.yul\":12873:12879   */\n              dup4\n                /* \"#utility.yul\":12866:12930   */\n              sstore\n                /* \"#utility.yul\":12788:12944   */\n              pop\n                /* \"#utility.yul\":12765:12944   */\n            tag_288:\n                /* \"#utility.yul\":12990:12991   */\n              0x01\n                /* \"#utility.yul\":12986:12987   */\n              0x02\n                /* \"#utility.yul\":12978:12984   */\n              dup9\n                /* \"#utility.yul\":12974:12988   */\n              mul\n                /* \"#utility.yul\":12970:12992   */\n              add\n                /* \"#utility.yul\":12964:12968   */\n              dup9\n                /* \"#utility.yul\":12957:12993   */\n              sstore\n                /* \"#utility.yul\":12392:13003   */\n              pop\n              pop\n              pop\n                /* \"#utility.yul\":12355:13242   */\n            tag_280:\n              pop\n                /* \"#utility.yul\":11945:13248   */\n              pop\n              pop\n              pop\n                /* \"#utility.yul\":11853:13248   */\n              pop\n              pop\n              jump\t// out\n                /* \"#utility.yul\":13254:13434   */\n            tag_132:\n                /* \"#utility.yul\":13302:13379   */\n              0x4e487b7100000000000000000000000000000000000000000000000000000000\n                /* \"#utility.yul\":13299:13300   */\n              0x00\n                /* \"#utility.yul\":13292:13380   */\n              mstore\n                /* \"#utility.yul\":13399:13403   */\n              0x12\n                /* \"#utility.yul\":13396:13397   */\n              0x04\n                /* \"#utility.yul\":13389:13404   */\n              mstore\n                /* \"#utility.yul\":13423:13427   */\n              0x24\n                /* \"#utility.yul\":13420:13421   */\n              0x00\n                /* \"#utility.yul\":13413:13428   */\n              revert\n                /* \"#utility.yul\":13440:13625   */\n            tag_80:\n                /* \"#utility.yul\":13480:13481   */\n              0x00\n                /* \"#utility.yul\":13497:13517   */\n              tag_292\n                /* \"#utility.yul\":13515:13516   */\n              dup3\n                /* \"#utility.yul\":13497:13517   */\n              tag_88\n              jump\t// in\n            tag_292:\n                /* \"#utility.yul\":13492:13517   */\n              swap2\n              pop\n                /* \"#utility.yul\":13531:13551   */\n              tag_293\n                /* \"#utility.yul\":13549:13550   */\n              dup4\n                /* \"#utility.yul\":13531:13551   */\n              tag_88\n              jump\t// in\n            tag_293:\n                /* \"#utility.yul\":13526:13551   */\n              swap3\n              pop\n                /* \"#utility.yul\":13570:13571   */\n              dup3\n                /* \"#utility.yul\":13560:13595   */\n              tag_294\n              jumpi\n                /* \"#utility.yul\":13575:13593   */\n              tag_295\n              tag_132\n              jump\t// in\n            tag_295:\n                /* \"#utility.yul\":13560:13595   */\n            tag_294:\n                /* \"#utility.yul\":13617:13618   */\n              dup3\n                /* \"#utility.yul\":13614:13615   */\n              dup3\n                /* \"#utility.yul\":13610:13619   */\n              div\n                /* \"#utility.yul\":13605:13619   */\n              swap1\n              pop\n                /* \"#utility.yul\":13440:13625   */\n              swap3\n              swap2\n              pop\n              pop\n              jump\t// out\n\n            auxdata: 0xa26469706673582212200d08e374fca514a0eaca3fbb52dc3d963a0127cff69557f9499422a612e0ee3464736f6c63430008180033\n        }\n    }\n\n    auxdata: 0xa264697066735822122069364a0e739dc040e95b7d4106fd840690ede405d066ec3dc52cfc262fb1c97b64736f6c63430008180033\n}\n","bytecode":{"linkReferences":{},"object":"608060405234801561000f575f80fd5b5061148b8061001d5f395ff3fe608060405234801561000f575f80fd5b506004361061003f575f3560e01c80636ffbea1314610043578063a3303a7514610073578063a6b036331461008f575b5f80fd5b61005d6004803603810190610058919061024e565b6100ad565b60405161006a91906102b8565b60405180910390f35b61008d6004803603810190610088919061024e565b6100e7565b005b610097610180565b6040516100a49190610388565b60405180910390f35b5f81815481106100bb575f80fd5b905f5260205f20015f915054906101000a900473ffffffffffffffffffffffffffffffffffffffff1681565b5f81336040516100f69061020a565b6101019291906103b7565b604051809103905ff08015801561011a573d5f803e3d5ffd5b5090505f81908060018154018082558091505060019003905f5260205f20015f9091909190916101000a81548173ffffffffffffffffffffffffffffffffffffffff021916908373ffffffffffffffffffffffffffffffffffffffff1602179055505050565b60605f80548060200260200160405190810160405280929190818152602001828054801561020057602002820191905f5260205f20905b815f9054906101000a900473ffffffffffffffffffffffffffffffffffffffff1673ffffffffffffffffffffffffffffffffffffffff16815260200190600101908083116101b7575b5050505050905090565b611077806103df83390190565b5f80fd5b5f819050919050565b61022d8161021b565b8114610237575f80fd5b50565b5f8135905061024881610224565b92915050565b5f6020828403121561026357610262610217565b5b5f6102708482850161023a565b91505092915050565b5f73ffffffffffffffffffffffffffffffffffffffff82169050919050565b5f6102a282610279565b9050919050565b6102b281610298565b82525050565b5f6020820190506102cb5f8301846102a9565b92915050565b5f81519050919050565b5f82825260208201905092915050565b5f819050602082019050919050565b61030381610298565b82525050565b5f61031483836102fa565b60208301905092915050565b5f602082019050919050565b5f610336826102d1565b61034081856102db565b935061034b836102eb565b805f5b8381101561037b5781516103628882610309565b975061036d83610320565b92505060018101905061034e565b5085935050505092915050565b5f6020820190508181035f8301526103a0818461032c565b905092915050565b6103b18161021b565b82525050565b5f6040820190506103ca5f8301856103a8565b6103d760208301846102a9565b939250505056fe608060405234801562000010575f80fd5b506040516200107738038062001077833981810160405281019062000036919062000121565b805f806101000a81548173ffffffffffffffffffffffffffffffffffffffff021916908373ffffffffffffffffffffffffffffffffffffffff16021790555081600181905550505062000166565b5f80fd5b5f819050919050565b6200009c8162000088565b8114620000a7575f80fd5b50565b5f81519050620000ba8162000091565b92915050565b5f73ffffffffffffffffffffffffffffffffffffffff82169050919050565b5f620000eb82620000c0565b9050919050565b620000fd81620000df565b811462000108575f80fd5b50565b5f815190506200011b81620000f2565b92915050565b5f80604083850312156200013a576200013962000084565b5b5f6200014985828601620000aa565b92505060206200015c858286016200010b565b9150509250929050565b610f0380620001745f395ff3fe608060405260043610610085575f3560e01c806382fde0931161005857806382fde093146101575780638a9cfd5514610181578063937e09b1146101a9578063d7bb99ba146101d3578063e7b668b4146101dd57610085565b80630121b93f146100895780630a144391146100b157806376daefd0146100ed57806381d12c5814610117575b5f80fd5b348015610094575f80fd5b506100af60048036038101906100aa9190610766565b610205565b005b3480156100bc575f80fd5b506100d760048036038101906100d291906107eb565b610334565b6040516100e49190610830565b60405180910390f35b3480156100f8575f80fd5b50610101610351565b60405161010e9190610858565b60405180910390f35b348015610122575f80fd5b5061013d60048036038101906101389190610766565b610374565b60405161014e95949392919061092a565b60405180910390f35b348015610162575f80fd5b5061016b610458565b6040516101789190610982565b60405180910390f35b34801561018c575f80fd5b506101a760048036038101906101a29190610ac7565b61045e565b005b3480156101b4575f80fd5b506101bd610564565b6040516101ca9190610982565b60405180910390f35b6101db61056a565b005b3480156101e8575f80fd5b5061020360048036038101906101fe9190610766565b6105e6565b005b5f60045f8381526020019081526020015f20905060055f3373ffffffffffffffffffffffffffffffffffffffff1673ffffffffffffffffffffffffffffffffffffffff1681526020019081526020015f205f9054906101000a900460ff1661026b575f80fd5b806004015f3373ffffffffffffffffffffffffffffffffffffffff1673ffffffffffffffffffffffffffffffffffffffff1681526020019081526020015f205f9054906101000a900460ff16156102c0575f80fd5b806003015f8154809291906102d490610b60565b91905055506001816004015f3373ffffffffffffffffffffffffffffffffffffffff1673ffffffffffffffffffffffffffffffffffffffff1681526020019081526020015f205f6101000a81548160ff0219169083151502179055505050565b6005602052805f5260405f205f915054906101000a900460ff1681565b5f8054906101000a900473ffffffffffffffffffffffffffffffffffffffff1681565b6004602052805f5260405f205f91509050805f01805461039390610bd4565b80601f01602080910402602001604051908101604052809291908181526020018280546103bf90610bd4565b801561040a5780601f106103e15761010080835404028352916020019161040a565b820191905f5260205f20905b8154815290600101906020018083116103ed57829003601f168201915b505050505090806001015490806002015f9054906101000a900473ffffffffffffffffffffffffffffffffffffffff16908060020160149054906101000a900460ff16908060030154905085565b60025481565b5f8054906101000a900473ffffffffffffffffffffffffffffffffffffffff1673ffffffffffffffffffffffffffffffffffffffff163373ffffffffffffffffffffffffffffffffffffffff16146104b4575f80fd5b5f60045f60035f8154809291906104ca90610b60565b9190505581526020019081526020015f20905083815f0190816104ed9190610da1565b5082816001018190555081816002015f6101000a81548173ffffffffffffffffffffffffffffffffffffffff021916908373ffffffffffffffffffffffffffffffffffffffff1602179055505f8160020160146101000a81548160ff0219169083151502179055505f816003018190555050505050565b60015481565b600154341015610578575f80fd5b600160055f3373ffffffffffffffffffffffffffffffffffffffff1673ffffffffffffffffffffffffffffffffffffffff1681526020019081526020015f205f6101000a81548160ff02191690831515021790555060025f8154809291906105df90610b60565b9190505550565b5f8054906101000a900473ffffffffffffffffffffffffffffffffffffffff1673ffffffffffffffffffffffffffffffffffffffff163373ffffffffffffffffffffffffffffffffffffffff161461063c575f80fd5b5f60045f8381526020019081526020015f2090508060020160149054906101000a900460ff161561066b575f80fd5b600280546106799190610e9d565b816003015411610687575f80fd5b47816001015410610696575f80fd5b806002015f9054906101000a900473ffffffffffffffffffffffffffffffffffffffff1673ffffffffffffffffffffffffffffffffffffffff166108fc826001015490811502906040515f60405180830381858888f19350505050158015610700573d5f803e3d5ffd5b5060018160020160146101000a81548160ff0219169083151502179055505050565b5f604051905090565b5f80fd5b5f80fd5b5f819050919050565b61074581610733565b811461074f575f80fd5b50565b5f813590506107608161073c565b92915050565b5f6020828403121561077b5761077a61072b565b5b5f61078884828501610752565b91505092915050565b5f73ffffffffffffffffffffffffffffffffffffffff82169050919050565b5f6107ba82610791565b9050919050565b6107ca816107b0565b81146107d4575f80fd5b50565b5f813590506107e5816107c1565b92915050565b5f60208284031215610800576107ff61072b565b5b5f61080d848285016107d7565b91505092915050565b5f8115159050919050565b61082a81610816565b82525050565b5f6020820190506108435f830184610821565b92915050565b610852816107b0565b82525050565b5f60208201905061086b5f830184610849565b92915050565b5f81519050919050565b5f82825260208201905092915050565b5f5b838110156108a857808201518184015260208101905061088d565b5f8484015250505050565b5f601f19601f8301169050919050565b5f6108cd82610871565b6108d7818561087b565b93506108e781856020860161088b565b6108f0816108b3565b840191505092915050565b61090481610733565b82525050565b5f61091482610791565b9050919050565b6109248161090a565b82525050565b5f60a0820190508181035f83015261094281886108c3565b905061095160208301876108fb565b61095e604083018661091b565b61096b6060830185610821565b61097860808301846108fb565b9695505050505050565b5f6020820190506109955f8301846108fb565b92915050565b5f80fd5b5f80fd5b7f4e487b71000000000000000000000000000000000000000000000000000000005f52604160045260245ffd5b6109d9826108b3565b810181811067ffffffffffffffff821117156109f8576109f76109a3565b5b80604052505050565b5f610a0a610722565b9050610a1682826109d0565b919050565b5f67ffffffffffffffff821115610a3557610a346109a3565b5b610a3e826108b3565b9050602081019050919050565b828183375f83830152505050565b5f610a6b610a6684610a1b565b610a01565b905082815260208101848484011115610a8757610a8661099f565b5b610a92848285610a4b565b509392505050565b5f82601f830112610aae57610aad61099b565b5b8135610abe848260208601610a59565b91505092915050565b5f805f60608486031215610ade57610add61072b565b5b5f84013567ffffffffffffffff811115610afb57610afa61072f565b5b610b0786828701610a9a565b9350506020610b1886828701610752565b9250506040610b29868287016107d7565b9150509250925092565b7f4e487b71000000000000000000000000000000000000000000000000000000005f52601160045260245ffd5b5f610b6a82610733565b91507fffffffffffffffffffffffffffffffffffffffffffffffffffffffffffffffff8203610b9c57610b9b610b33565b5b600182019050919050565b7f4e487b71000000000000000000000000000000000000000000000000000000005f52602260045260245ffd5b5f6002820490506001821680610beb57607f821691505b602082108103610bfe57610bfd610ba7565b5b50919050565b5f819050815f5260205f209050919050565b5f6020601f8301049050919050565b5f82821b905092915050565b5f60088302610c607fffffffffffffffffffffffffffffffffffffffffffffffffffffffffffffffff82610c25565b610c6a8683610c25565b95508019841693508086168417925050509392505050565b5f819050919050565b5f610ca5610ca0610c9b84610733565b610c82565b610733565b9050919050565b5f819050919050565b610cbe83610c8b565b610cd2610cca82610cac565b848454610c31565b825550505050565b5f90565b610ce6610cda565b610cf1818484610cb5565b505050565b5b81811015610d1457610d095f82610cde565b600181019050610cf7565b5050565b601f821115610d5957610d2a81610c04565b610d3384610c16565b81016020851015610d42578190505b610d56610d4e85610c16565b830182610cf6565b50505b505050565b5f82821c905092915050565b5f610d795f1984600802610d5e565b1980831691505092915050565b5f610d918383610d6a565b9150826002028217905092915050565b610daa82610871565b67ffffffffffffffff811115610dc357610dc26109a3565b5b610dcd8254610bd4565b610dd8828285610d18565b5f60209050601f831160018114610e09575f8415610df7578287015190505b610e018582610d86565b865550610e68565b601f198416610e1786610c04565b5f5b82811015610e3e57848901518255600182019150602085019450602081019050610e19565b86831015610e5b5784890151610e57601f891682610d6a565b8355505b6001600288020188555050505b505050505050565b7f4e487b71000000000000000000000000000000000000000000000000000000005f52601260045260245ffd5b5f610ea782610733565b9150610eb283610733565b925082610ec257610ec1610e70565b5b82820490509291505056fea26469706673582212200d08e374fca514a0eaca3fbb52dc3d963a0127cff69557f9499422a612e0ee3464736f6c63430008180033a264697066735822122069364a0e739dc040e95b7d4106fd840690ede405d066ec3dc52cfc262fb1c97b64736f6c63430008180033","opcodes":"PUSH1 0x80 PUSH1 0x40 MSTORE CALLVALUE DUP1 ISZERO PUSH2 0xF JUMPI PUSH0 DUP1 REVERT JUMPDEST POP PUSH2 0x148B DUP1 PUSH2 0x1D PUSH0 CODECOPY PUSH0 RETURN INVALID PUSH1 0x80 PUSH1 0x40 MSTORE CALLVALUE DUP1 ISZERO PUSH2 0xF JUMPI PUSH0 DUP1 REVERT JUMPDEST POP PUSH1 0x4 CALLDATASIZE LT PUSH2 0x3F JUMPI PUSH0 CALLDATALOAD PUSH1 0xE0 SHR DUP1 PUSH4 0x6FFBEA13 EQ PUSH2 0x43 JUMPI DUP1 PUSH4 0xA3303A75 EQ PUSH2 0x73 JUMPI DUP1 PUSH4 0xA6B03633 EQ PUSH2 0x8F JUMPI JUMPDEST PUSH0 DUP1 REVERT JUMPDEST PUSH2 0x5D PUSH1 0x4 DUP1 CALLDATASIZE SUB DUP2 ADD SWAP1 PUSH2 0x58 SWAP2 SWAP1 PUSH2 0x24E JUMP JUMPDEST PUSH2 0xAD JUMP JUMPDEST PUSH1 0x40 MLOAD PUSH2 0x6A SWAP2 SWAP1 PUSH2 0x2B8 JUMP JUMPDEST PUSH1 0x40 MLOAD DUP1 SWAP2 SUB SWAP1 RETURN JUMPDEST PUSH2 0x8D PUSH1 0x4 DUP1 CALLDATASIZE SUB DUP2 ADD SWAP1 PUSH2 0x88 SWAP2 SWAP1 PUSH2 0x24E JUMP JUMPDEST PUSH2 0xE7 JUMP JUMPDEST STOP JUMPDEST PUSH2 0x97 PUSH2 0x180 JUMP JUMPDEST PUSH1 0x40 MLOAD PUSH2 0xA4 SWAP2 SWAP1 PUSH2 0x388 JUMP JUMPDEST PUSH1 0x40 MLOAD DUP1 SWAP2 SUB SWAP1 RETURN JUMPDEST PUSH0 DUP2 DUP2 SLOAD DUP2 LT PUSH2 0xBB JUMPI PUSH0 DUP1 REVERT JUMPDEST SWAP1 PUSH0 MSTORE PUSH1 0x20 PUSH0 KECCAK256 ADD PUSH0 SWAP2 POP SLOAD SWAP1 PUSH2 0x100 EXP SWAP1 DIV PUSH20 0xFFFFFFFFFFFFFFFFFFFFFFFFFFFFFFFFFFFFFFFF AND DUP2 JUMP JUMPDEST PUSH0 DUP2 CALLER PUSH1 0x40 MLOAD PUSH2 0xF6 SWAP1 PUSH2 0x20A JUMP JUMPDEST PUSH2 0x101 SWAP3 SWAP2 SWAP1 PUSH2 0x3B7 JUMP JUMPDEST PUSH1 0x40 MLOAD DUP1 SWAP2 SUB SWAP1 PUSH0 CREATE DUP1 ISZERO DUP1 ISZERO PUSH2 0x11A JUMPI RETURNDATASIZE PUSH0 DUP1 RETURNDATACOPY RETURNDATASIZE PUSH0 REVERT JUMPDEST POP SWAP1 POP PUSH0 DUP2 SWAP1 DUP1 PUSH1 0x1 DUP2 SLOAD ADD DUP1 DUP3 SSTORE DUP1 SWAP2 POP POP PUSH1 0x1 SWAP1 SUB SWAP1 PUSH0 MSTORE PUSH1 0x20 PUSH0 KECCAK256 ADD PUSH0 SWAP1 SWAP2 SWAP1 SWAP2 SWAP1 SWAP2 PUSH2 0x100 EXP DUP2 SLOAD DUP2 PUSH20 0xFFFFFFFFFFFFFFFFFFFFFFFFFFFFFFFFFFFFFFFF MUL NOT AND SWAP1 DUP4 PUSH20 0xFFFFFFFFFFFFFFFFFFFFFFFFFFFFFFFFFFFFFFFF AND MUL OR SWAP1 SSTORE POP POP POP JUMP JUMPDEST PUSH1 0x60 PUSH0 DUP1 SLOAD DUP1 PUSH1 0x20 MUL PUSH1 0x20 ADD PUSH1 0x40 MLOAD SWAP1 DUP2 ADD PUSH1 0x40 MSTORE DUP1 SWAP3 SWAP2 SWAP1 DUP2 DUP2 MSTORE PUSH1 0x20 ADD DUP3 DUP1 SLOAD DUP1 ISZERO PUSH2 0x200 JUMPI PUSH1 0x20 MUL DUP3 ADD SWAP2 SWAP1 PUSH0 MSTORE PUSH1 0x20 PUSH0 KECCAK256 SWAP1 JUMPDEST DUP2 PUSH0 SWAP1 SLOAD SWAP1 PUSH2 0x100 EXP SWAP1 DIV PUSH20 0xFFFFFFFFFFFFFFFFFFFFFFFFFFFFFFFFFFFFFFFF AND PUSH20 0xFFFFFFFFFFFFFFFFFFFFFFFFFFFFFFFFFFFFFFFF AND DUP2 MSTORE PUSH1 0x20 ADD SWAP1 PUSH1 0x1 ADD SWAP1 DUP1 DUP4 GT PUSH2 0x1B7 JUMPI JUMPDEST POP POP POP POP POP SWAP1 POP SWAP1 JUMP JUMPDEST PUSH2 0x1077 DUP1 PUSH2 0x3DF DUP4 CODECOPY ADD SWAP1 JUMP JUMPDEST PUSH0 DUP1 REVERT JUMPDEST PUSH0 DUP2 SWAP1 POP SWAP2 SWAP1 POP JUMP JUMPDEST PUSH2 0x22D DUP2 PUSH2 0x21B JUMP JUMPDEST DUP2 EQ PUSH2 0x237 JUMPI PUSH0 DUP1 REVERT JUMPDEST POP JUMP JUMPDEST PUSH0 DUP2 CALLDATALOAD SWAP1 POP PUSH2 0x248 DUP2 PUSH2 0x224 JUMP JUMPDEST SWAP3 SWAP2 POP POP JUMP JUMPDEST PUSH0 PUSH1 0x20 DUP3 DUP5 SUB SLT ISZERO PUSH2 0x263 JUMPI PUSH2 0x262 PUSH2 0x217 JUMP JUMPDEST JUMPDEST PUSH0 PUSH2 0x270 DUP5 DUP3 DUP6 ADD PUSH2 0x23A JUMP JUMPDEST SWAP2 POP POP SWAP3 SWAP2 POP POP JUMP JUMPDEST PUSH0 PUSH20 0xFFFFFFFFFFFFFFFFFFFFFFFFFFFFFFFFFFFFFFFF DUP3 AND SWAP1 POP SWAP2 SWAP1 POP JUMP JUMPDEST PUSH0 PUSH2 0x2A2 DUP3 PUSH2 0x279 JUMP JUMPDEST SWAP1 POP SWAP2 SWAP1 POP JUMP JUMPDEST PUSH2 0x2B2 DUP2 PUSH2 0x298 JUMP JUMPDEST DUP3 MSTORE POP POP JUMP JUMPDEST PUSH0 PUSH1 0x20 DUP3 ADD SWAP1 POP PUSH2 0x2CB PUSH0 DUP4 ADD DUP5 PUSH2 0x2A9 JUMP JUMPDEST SWAP3 SWAP2 POP POP JUMP JUMPDEST PUSH0 DUP2 MLOAD SWAP1 POP SWAP2 SWAP1 POP JUMP JUMPDEST PUSH0 DUP3 DUP3 MSTORE PUSH1 0x20 DUP3 ADD SWAP1 POP SWAP3 SWAP2 POP POP JUMP JUMPDEST PUSH0 DUP2 SWAP1 POP PUSH1 0x20 DUP3 ADD SWAP1 POP SWAP2 SWAP1 POP JUMP JUMPDEST PUSH2 0x303 DUP2 PUSH2 0x298 JUMP JUMPDEST DUP3 MSTORE POP POP JUMP JUMPDEST PUSH0 PUSH2 0x314 DUP4 DUP4 PUSH2 0x2FA JUMP JUMPDEST PUSH1 0x20 DUP4 ADD SWAP1 POP SWAP3 SWAP2 POP POP JUMP JUMPDEST PUSH0 PUSH1 0x20 DUP3 ADD SWAP1 POP SWAP2 SWAP1 POP JUMP JUMPDEST PUSH0 PUSH2 0x336 DUP3 PUSH2 0x2D1 JUMP JUMPDEST PUSH2 0x340 DUP2 DUP6 PUSH2 0x2DB JUMP JUMPDEST SWAP4 POP PUSH2 0x34B DUP4 PUSH2 0x2EB JUMP JUMPDEST DUP1 PUSH0 JUMPDEST DUP4 DUP2 LT ISZERO PUSH2 0x37B JUMPI DUP2 MLOAD PUSH2 0x362 DUP9 DUP3 PUSH2 0x309 JUMP JUMPDEST SWAP8 POP PUSH2 0x36D DUP4 PUSH2 0x320 JUMP JUMPDEST SWAP3 POP POP PUSH1 0x1 DUP2 ADD SWAP1 POP PUSH2 0x34E JUMP JUMPDEST POP DUP6 SWAP4 POP POP POP POP SWAP3 SWAP2 POP POP JUMP JUMPDEST PUSH0 PUSH1 0x20 DUP3 ADD SWAP1 POP DUP2 DUP2 SUB PUSH0 DUP4 ADD MSTORE PUSH2 0x3A0 DUP2 DUP5 PUSH2 0x32C JUMP JUMPDEST SWAP1 POP SWAP3 SWAP2 POP POP JUMP JUMPDEST PUSH2 0x3B1 DUP2 PUSH2 0x21B JUMP JUMPDEST DUP3 MSTORE POP POP JUMP JUMPDEST PUSH0 PUSH1 0x40 DUP3 ADD SWAP1 POP PUSH2 0x3CA PUSH0 DUP4 ADD DUP6 PUSH2 0x3A8 JUMP JUMPDEST PUSH2 0x3D7 PUSH1 0x20 DUP4 ADD DUP5 PUSH2 0x2A9 JUMP JUMPDEST SWAP4 SWAP3 POP POP POP JUMP INVALID PUSH1 0x80 PUSH1 0x40 MSTORE CALLVALUE DUP1 ISZERO PUSH3 0x10 JUMPI PUSH0 DUP1 REVERT JUMPDEST POP PUSH1 0x40 MLOAD PUSH3 0x1077 CODESIZE SUB DUP1 PUSH3 0x1077 DUP4 CODECOPY DUP2 DUP2 ADD PUSH1 0x40 MSTORE DUP2 ADD SWAP1 PUSH3 0x36 SWAP2 SWAP1 PUSH3 0x121 JUMP JUMPDEST DUP1 PUSH0 DUP1 PUSH2 0x100 EXP DUP2 SLOAD DUP2 PUSH20 0xFFFFFFFFFFFFFFFFFFFFFFFFFFFFFFFFFFFFFFFF MUL NOT AND SWAP1 DUP4 PUSH20 0xFFFFFFFFFFFFFFFFFFFFFFFFFFFFFFFFFFFFFFFF AND MUL OR SWAP1 SSTORE POP DUP2 PUSH1 0x1 DUP2 SWAP1 SSTORE POP POP POP PUSH3 0x166 JUMP JUMPDEST PUSH0 DUP1 REVERT JUMPDEST PUSH0 DUP2 SWAP1 POP SWAP2 SWAP1 POP JUMP JUMPDEST PUSH3 0x9C DUP2 PUSH3 0x88 JUMP JUMPDEST DUP2 EQ PUSH3 0xA7 JUMPI PUSH0 DUP1 REVERT JUMPDEST POP JUMP JUMPDEST PUSH0 DUP2 MLOAD SWAP1 POP PUSH3 0xBA DUP2 PUSH3 0x91 JUMP JUMPDEST SWAP3 SWAP2 POP POP JUMP JUMPDEST PUSH0 PUSH20 0xFFFFFFFFFFFFFFFFFFFFFFFFFFFFFFFFFFFFFFFF DUP3 AND SWAP1 POP SWAP2 SWAP1 POP JUMP JUMPDEST PUSH0 PUSH3 0xEB DUP3 PUSH3 0xC0 JUMP JUMPDEST SWAP1 POP SWAP2 SWAP1 POP JUMP JUMPDEST PUSH3 0xFD DUP2 PUSH3 0xDF JUMP JUMPDEST DUP2 EQ PUSH3 0x108 JUMPI PUSH0 DUP1 REVERT JUMPDEST POP JUMP JUMPDEST PUSH0 DUP2 MLOAD SWAP1 POP PUSH3 0x11B DUP2 PUSH3 0xF2 JUMP JUMPDEST SWAP3 SWAP2 POP POP JUMP JUMPDEST PUSH0 DUP1 PUSH1 0x40 DUP4 DUP6 SUB SLT ISZERO PUSH3 0x13A JUMPI PUSH3 0x139 PUSH3 0x84 JUMP JUMPDEST JUMPDEST PUSH0 PUSH3 0x149 DUP6 DUP3 DUP7 ADD PUSH3 0xAA JUMP JUMPDEST SWAP3 POP POP PUSH1 0x20 PUSH3 0x15C DUP6 DUP3 DUP7 ADD PUSH3 0x10B JUMP JUMPDEST SWAP2 POP POP SWAP3 POP SWAP3 SWAP1 POP JUMP JUMPDEST PUSH2 0xF03 DUP1 PUSH3 0x174 PUSH0 CODECOPY PUSH0 RETURN INVALID PUSH1 0x80 PUSH1 0x40 MSTORE PUSH1 0x4 CALLDATASIZE LT PUSH2 0x85 JUMPI PUSH0 CALLDATALOAD PUSH1 0xE0 SHR DUP1 PUSH4 0x82FDE093 GT PUSH2 0x58 JUMPI DUP1 PUSH4 0x82FDE093 EQ PUSH2 0x157 JUMPI DUP1 PUSH4 0x8A9CFD55 EQ PUSH2 0x181 JUMPI DUP1 PUSH4 0x937E09B1 EQ PUSH2 0x1A9 JUMPI DUP1 PUSH4 0xD7BB99BA EQ PUSH2 0x1D3 JUMPI DUP1 PUSH4 0xE7B668B4 EQ PUSH2 0x1DD JUMPI PUSH2 0x85 JUMP JUMPDEST DUP1 PUSH4 0x121B93F EQ PUSH2 0x89 JUMPI DUP1 PUSH4 0xA144391 EQ PUSH2 0xB1 JUMPI DUP1 PUSH4 0x76DAEFD0 EQ PUSH2 0xED JUMPI DUP1 PUSH4 0x81D12C58 EQ PUSH2 0x117 JUMPI JUMPDEST PUSH0 DUP1 REVERT JUMPDEST CALLVALUE DUP1 ISZERO PUSH2 0x94 JUMPI PUSH0 DUP1 REVERT JUMPDEST POP PUSH2 0xAF PUSH1 0x4 DUP1 CALLDATASIZE SUB DUP2 ADD SWAP1 PUSH2 0xAA SWAP2 SWAP1 PUSH2 0x766 JUMP JUMPDEST PUSH2 0x205 JUMP JUMPDEST STOP JUMPDEST CALLVALUE DUP1 ISZERO PUSH2 0xBC JUMPI PUSH0 DUP1 REVERT JUMPDEST POP PUSH2 0xD7 PUSH1 0x4 DUP1 CALLDATASIZE SUB DUP2 ADD SWAP1 PUSH2 0xD2 SWAP2 SWAP1 PUSH2 0x7EB JUMP JUMPDEST PUSH2 0x334 JUMP JUMPDEST PUSH1 0x40 MLOAD PUSH2 0xE4 SWAP2 SWAP1 PUSH2 0x830 JUMP JUMPDEST PUSH1 0x40 MLOAD DUP1 SWAP2 SUB SWAP1 RETURN JUMPDEST CALLVALUE DUP1 ISZERO PUSH2 0xF8 JUMPI PUSH0 DUP1 REVERT JUMPDEST POP PUSH2 0x101 PUSH2 0x351 JUMP JUMPDEST PUSH1 0x40 MLOAD PUSH2 0x10E SWAP2 SWAP1 PUSH2 0x858 JUMP JUMPDEST PUSH1 0x40 MLOAD DUP1 SWAP2 SUB SWAP1 RETURN JUMPDEST CALLVALUE DUP1 ISZERO PUSH2 0x122 JUMPI PUSH0 DUP1 REVERT JUMPDEST POP PUSH2 0x13D PUSH1 0x4 DUP1 CALLDATASIZE SUB DUP2 ADD SWAP1 PUSH2 0x138 SWAP2 SWAP1 PUSH2 0x766 JUMP JUMPDEST PUSH2 0x374 JUMP JUMPDEST PUSH1 0x40 MLOAD PUSH2 0x14E SWAP6 SWAP5 SWAP4 SWAP3 SWAP2 SWAP1 PUSH2 0x92A JUMP JUMPDEST PUSH1 0x40 MLOAD DUP1 SWAP2 SUB SWAP1 RETURN JUMPDEST CALLVALUE DUP1 ISZERO PUSH2 0x162 JUMPI PUSH0 DUP1 REVERT JUMPDEST POP PUSH2 0x16B PUSH2 0x458 JUMP JUMPDEST PUSH1 0x40 MLOAD PUSH2 0x178 SWAP2 SWAP1 PUSH2 0x982 JUMP JUMPDEST PUSH1 0x40 MLOAD DUP1 SWAP2 SUB SWAP1 RETURN JUMPDEST CALLVALUE DUP1 ISZERO PUSH2 0x18C JUMPI PUSH0 DUP1 REVERT JUMPDEST POP PUSH2 0x1A7 PUSH1 0x4 DUP1 CALLDATASIZE SUB DUP2 ADD SWAP1 PUSH2 0x1A2 SWAP2 SWAP1 PUSH2 0xAC7 JUMP JUMPDEST PUSH2 0x45E JUMP JUMPDEST STOP JUMPDEST CALLVALUE DUP1 ISZERO PUSH2 0x1B4 JUMPI PUSH0 DUP1 REVERT JUMPDEST POP PUSH2 0x1BD PUSH2 0x564 JUMP JUMPDEST PUSH1 0x40 MLOAD PUSH2 0x1CA SWAP2 SWAP1 PUSH2 0x982 JUMP JUMPDEST PUSH1 0x40 MLOAD DUP1 SWAP2 SUB SWAP1 RETURN JUMPDEST PUSH2 0x1DB PUSH2 0x56A JUMP JUMPDEST STOP JUMPDEST CALLVALUE DUP1 ISZERO PUSH2 0x1E8 JUMPI PUSH0 DUP1 REVERT JUMPDEST POP PUSH2 0x203 PUSH1 0x4 DUP1 CALLDATASIZE SUB DUP2 ADD SWAP1 PUSH2 0x1FE SWAP2 SWAP1 PUSH2 0x766 JUMP JUMPDEST PUSH2 0x5E6 JUMP JUMPDEST STOP JUMPDEST PUSH0 PUSH1 0x4 PUSH0 DUP4 DUP2 MSTORE PUSH1 0x20 ADD SWAP1 DUP2 MSTORE PUSH1 0x20 ADD PUSH0 KECCAK256 SWAP1 POP PUSH1 0x5 PUSH0 CALLER PUSH20 0xFFFFFFFFFFFFFFFFFFFFFFFFFFFFFFFFFFFFFFFF AND PUSH20 0xFFFFFFFFFFFFFFFFFFFFFFFFFFFFFFFFFFFFFFFF AND DUP2 MSTORE PUSH1 0x20 ADD SWAP1 DUP2 MSTORE PUSH1 0x20 ADD PUSH0 KECCAK256 PUSH0 SWAP1 SLOAD SWAP1 PUSH2 0x100 EXP SWAP1 DIV PUSH1 0xFF AND PUSH2 0x26B JUMPI PUSH0 DUP1 REVERT JUMPDEST DUP1 PUSH1 0x4 ADD PUSH0 CALLER PUSH20 0xFFFFFFFFFFFFFFFFFFFFFFFFFFFFFFFFFFFFFFFF AND PUSH20 0xFFFFFFFFFFFFFFFFFFFFFFFFFFFFFFFFFFFFFFFF AND DUP2 MSTORE PUSH1 0x20 ADD SWAP1 DUP2 MSTORE PUSH1 0x20 ADD PUSH0 KECCAK256 PUSH0 SWAP1 SLOAD SWAP1 PUSH2 0x100 EXP SWAP1 DIV PUSH1 0xFF AND ISZERO PUSH2 0x2C0 JUMPI PUSH0 DUP1 REVERT JUMPDEST DUP1 PUSH1 0x3 ADD PUSH0 DUP2 SLOAD DUP1 SWAP3 SWAP2 SWAP1 PUSH2 0x2D4 SWAP1 PUSH2 0xB60 JUMP JUMPDEST SWAP2 SWAP1 POP SSTORE POP PUSH1 0x1 DUP2 PUSH1 0x4 ADD PUSH0 CALLER PUSH20 0xFFFFFFFFFFFFFFFFFFFFFFFFFFFFFFFFFFFFFFFF AND PUSH20 0xFFFFFFFFFFFFFFFFFFFFFFFFFFFFFFFFFFFFFFFF AND DUP2 MSTORE PUSH1 0x20 ADD SWAP1 DUP2 MSTORE PUSH1 0x20 ADD PUSH0 KECCAK256 PUSH0 PUSH2 0x100 EXP DUP2 SLOAD DUP2 PUSH1 0xFF MUL NOT AND SWAP1 DUP4 ISZERO ISZERO MUL OR SWAP1 SSTORE POP POP POP JUMP JUMPDEST PUSH1 0x5 PUSH1 0x20 MSTORE DUP1 PUSH0 MSTORE PUSH1 0x40 PUSH0 KECCAK256 PUSH0 SWAP2 POP SLOAD SWAP1 PUSH2 0x100 EXP SWAP1 DIV PUSH1 0xFF AND DUP2 JUMP JUMPDEST PUSH0 DUP1 SLOAD SWAP1 PUSH2 0x100 EXP SWAP1 DIV PUSH20 0xFFFFFFFFFFFFFFFFFFFFFFFFFFFFFFFFFFFFFFFF AND DUP2 JUMP JUMPDEST PUSH1 0x4 PUSH1 0x20 MSTORE DUP1 PUSH0 MSTORE PUSH1 0x40 PUSH0 KECCAK256 PUSH0 SWAP2 POP SWAP1 POP DUP1 PUSH0 ADD DUP1 SLOAD PUSH2 0x393 SWAP1 PUSH2 0xBD4 JUMP JUMPDEST DUP1 PUSH1 0x1F ADD PUSH1 0x20 DUP1 SWAP2 DIV MUL PUSH1 0x20 ADD PUSH1 0x40 MLOAD SWAP1 DUP2 ADD PUSH1 0x40 MSTORE DUP1 SWAP3 SWAP2 SWAP1 DUP2 DUP2 MSTORE PUSH1 0x20 ADD DUP3 DUP1 SLOAD PUSH2 0x3BF SWAP1 PUSH2 0xBD4 JUMP JUMPDEST DUP1 ISZERO PUSH2 0x40A JUMPI DUP1 PUSH1 0x1F LT PUSH2 0x3E1 JUMPI PUSH2 0x100 DUP1 DUP4 SLOAD DIV MUL DUP4 MSTORE SWAP2 PUSH1 0x20 ADD SWAP2 PUSH2 0x40A JUMP JUMPDEST DUP3 ADD SWAP2 SWAP1 PUSH0 MSTORE PUSH1 0x20 PUSH0 KECCAK256 SWAP1 JUMPDEST DUP2 SLOAD DUP2 MSTORE SWAP1 PUSH1 0x1 ADD SWAP1 PUSH1 0x20 ADD DUP1 DUP4 GT PUSH2 0x3ED JUMPI DUP3 SWAP1 SUB PUSH1 0x1F AND DUP3 ADD SWAP2 JUMPDEST POP POP POP POP POP SWAP1 DUP1 PUSH1 0x1 ADD SLOAD SWAP1 DUP1 PUSH1 0x2 ADD PUSH0 SWAP1 SLOAD SWAP1 PUSH2 0x100 EXP SWAP1 DIV PUSH20 0xFFFFFFFFFFFFFFFFFFFFFFFFFFFFFFFFFFFFFFFF AND SWAP1 DUP1 PUSH1 0x2 ADD PUSH1 0x14 SWAP1 SLOAD SWAP1 PUSH2 0x100 EXP SWAP1 DIV PUSH1 0xFF AND SWAP1 DUP1 PUSH1 0x3 ADD SLOAD SWAP1 POP DUP6 JUMP JUMPDEST PUSH1 0x2 SLOAD DUP2 JUMP JUMPDEST PUSH0 DUP1 SLOAD SWAP1 PUSH2 0x100 EXP SWAP1 DIV PUSH20 0xFFFFFFFFFFFFFFFFFFFFFFFFFFFFFFFFFFFFFFFF AND PUSH20 0xFFFFFFFFFFFFFFFFFFFFFFFFFFFFFFFFFFFFFFFF AND CALLER PUSH20 0xFFFFFFFFFFFFFFFFFFFFFFFFFFFFFFFFFFFFFFFF AND EQ PUSH2 0x4B4 JUMPI PUSH0 DUP1 REVERT JUMPDEST PUSH0 PUSH1 0x4 PUSH0 PUSH1 0x3 PUSH0 DUP2 SLOAD DUP1 SWAP3 SWAP2 SWAP1 PUSH2 0x4CA SWAP1 PUSH2 0xB60 JUMP JUMPDEST SWAP2 SWAP1 POP SSTORE DUP2 MSTORE PUSH1 0x20 ADD SWAP1 DUP2 MSTORE PUSH1 0x20 ADD PUSH0 KECCAK256 SWAP1 POP DUP4 DUP2 PUSH0 ADD SWAP1 DUP2 PUSH2 0x4ED SWAP2 SWAP1 PUSH2 0xDA1 JUMP JUMPDEST POP DUP3 DUP2 PUSH1 0x1 ADD DUP2 SWAP1 SSTORE POP DUP2 DUP2 PUSH1 0x2 ADD PUSH0 PUSH2 0x100 EXP DUP2 SLOAD DUP2 PUSH20 0xFFFFFFFFFFFFFFFFFFFFFFFFFFFFFFFFFFFFFFFF MUL NOT AND SWAP1 DUP4 PUSH20 0xFFFFFFFFFFFFFFFFFFFFFFFFFFFFFFFFFFFFFFFF AND MUL OR SWAP1 SSTORE POP PUSH0 DUP2 PUSH1 0x2 ADD PUSH1 0x14 PUSH2 0x100 EXP DUP2 SLOAD DUP2 PUSH1 0xFF MUL NOT AND SWAP1 DUP4 ISZERO ISZERO MUL OR SWAP1 SSTORE POP PUSH0 DUP2 PUSH1 0x3 ADD DUP2 SWAP1 SSTORE POP POP POP POP POP JUMP JUMPDEST PUSH1 0x1 SLOAD DUP2 JUMP JUMPDEST PUSH1 0x1 SLOAD CALLVALUE LT ISZERO PUSH2 0x578 JUMPI PUSH0 DUP1 REVERT JUMPDEST PUSH1 0x1 PUSH1 0x5 PUSH0 CALLER PUSH20 0xFFFFFFFFFFFFFFFFFFFFFFFFFFFFFFFFFFFFFFFF AND PUSH20 0xFFFFFFFFFFFFFFFFFFFFFFFFFFFFFFFFFFFFFFFF AND DUP2 MSTORE PUSH1 0x20 ADD SWAP1 DUP2 MSTORE PUSH1 0x20 ADD PUSH0 KECCAK256 PUSH0 PUSH2 0x100 EXP DUP2 SLOAD DUP2 PUSH1 0xFF MUL NOT AND SWAP1 DUP4 ISZERO ISZERO MUL OR SWAP1 SSTORE POP PUSH1 0x2 PUSH0 DUP2 SLOAD DUP1 SWAP3 SWAP2 SWAP1 PUSH2 0x5DF SWAP1 PUSH2 0xB60 JUMP JUMPDEST SWAP2 SWAP1 POP SSTORE POP JUMP JUMPDEST PUSH0 DUP1 SLOAD SWAP1 PUSH2 0x100 EXP SWAP1 DIV PUSH20 0xFFFFFFFFFFFFFFFFFFFFFFFFFFFFFFFFFFFFFFFF AND PUSH20 0xFFFFFFFFFFFFFFFFFFFFFFFFFFFFFFFFFFFFFFFF AND CALLER PUSH20 0xFFFFFFFFFFFFFFFFFFFFFFFFFFFFFFFFFFFFFFFF AND EQ PUSH2 0x63C JUMPI PUSH0 DUP1 REVERT JUMPDEST PUSH0 PUSH1 0x4 PUSH0 DUP4 DUP2 MSTORE PUSH1 0x20 ADD SWAP1 DUP2 MSTORE PUSH1 0x20 ADD PUSH0 KECCAK256 SWAP1 POP DUP1 PUSH1 0x2 ADD PUSH1 0x14 SWAP1 SLOAD SWAP1 PUSH2 0x100 EXP SWAP1 DIV PUSH1 0xFF AND ISZERO PUSH2 0x66B JUMPI PUSH0 DUP1 REVERT JUMPDEST PUSH1 0x2 DUP1 SLOAD PUSH2 0x679 SWAP2 SWAP1 PUSH2 0xE9D JUMP JUMPDEST DUP2 PUSH1 0x3 ADD SLOAD GT PUSH2 0x687 JUMPI PUSH0 DUP1 REVERT JUMPDEST SELFBALANCE DUP2 PUSH1 0x1 ADD SLOAD LT PUSH2 0x696 JUMPI PUSH0 DUP1 REVERT JUMPDEST DUP1 PUSH1 0x2 ADD PUSH0 SWAP1 SLOAD SWAP1 PUSH2 0x100 EXP SWAP1 DIV PUSH20 0xFFFFFFFFFFFFFFFFFFFFFFFFFFFFFFFFFFFFFFFF AND PUSH20 0xFFFFFFFFFFFFFFFFFFFFFFFFFFFFFFFFFFFFFFFF AND PUSH2 0x8FC DUP3 PUSH1 0x1 ADD SLOAD SWAP1 DUP2 ISZERO MUL SWAP1 PUSH1 0x40 MLOAD PUSH0 PUSH1 0x40 MLOAD DUP1 DUP4 SUB DUP2 DUP6 DUP9 DUP9 CALL SWAP4 POP POP POP POP ISZERO DUP1 ISZERO PUSH2 0x700 JUMPI RETURNDATASIZE PUSH0 DUP1 RETURNDATACOPY RETURNDATASIZE PUSH0 REVERT JUMPDEST POP PUSH1 0x1 DUP2 PUSH1 0x2 ADD PUSH1 0x14 PUSH2 0x100 EXP DUP2 SLOAD DUP2 PUSH1 0xFF MUL NOT AND SWAP1 DUP4 ISZERO ISZERO MUL OR SWAP1 SSTORE POP POP POP JUMP JUMPDEST PUSH0 PUSH1 0x40 MLOAD SWAP1 POP SWAP1 JUMP JUMPDEST PUSH0 DUP1 REVERT JUMPDEST PUSH0 DUP1 REVERT JUMPDEST PUSH0 DUP2 SWAP1 POP SWAP2 SWAP1 POP JUMP JUMPDEST PUSH2 0x745 DUP2 PUSH2 0x733 JUMP JUMPDEST DUP2 EQ PUSH2 0x74F JUMPI PUSH0 DUP1 REVERT JUMPDEST POP JUMP JUMPDEST PUSH0 DUP2 CALLDATALOAD SWAP1 POP PUSH2 0x760 DUP2 PUSH2 0x73C JUMP JUMPDEST SWAP3 SWAP2 POP POP JUMP JUMPDEST PUSH0 PUSH1 0x20 DUP3 DUP5 SUB SLT ISZERO PUSH2 0x77B JUMPI PUSH2 0x77A PUSH2 0x72B JUMP JUMPDEST JUMPDEST PUSH0 PUSH2 0x788 DUP5 DUP3 DUP6 ADD PUSH2 0x752 JUMP JUMPDEST SWAP2 POP POP SWAP3 SWAP2 POP POP JUMP JUMPDEST PUSH0 PUSH20 0xFFFFFFFFFFFFFFFFFFFFFFFFFFFFFFFFFFFFFFFF DUP3 AND SWAP1 POP SWAP2 SWAP1 POP JUMP JUMPDEST PUSH0 PUSH2 0x7BA DUP3 PUSH2 0x791 JUMP JUMPDEST SWAP1 POP SWAP2 SWAP1 POP JUMP JUMPDEST PUSH2 0x7CA DUP2 PUSH2 0x7B0 JUMP JUMPDEST DUP2 EQ PUSH2 0x7D4 JUMPI PUSH0 DUP1 REVERT JUMPDEST POP JUMP JUMPDEST PUSH0 DUP2 CALLDATALOAD SWAP1 POP PUSH2 0x7E5 DUP2 PUSH2 0x7C1 JUMP JUMPDEST SWAP3 SWAP2 POP POP JUMP JUMPDEST PUSH0 PUSH1 0x20 DUP3 DUP5 SUB SLT ISZERO PUSH2 0x800 JUMPI PUSH2 0x7FF PUSH2 0x72B JUMP JUMPDEST JUMPDEST PUSH0 PUSH2 0x80D DUP5 DUP3 DUP6 ADD PUSH2 0x7D7 JUMP JUMPDEST SWAP2 POP POP SWAP3 SWAP2 POP POP JUMP JUMPDEST PUSH0 DUP2 ISZERO ISZERO SWAP1 POP SWAP2 SWAP1 POP JUMP JUMPDEST PUSH2 0x82A DUP2 PUSH2 0x816 JUMP JUMPDEST DUP3 MSTORE POP POP JUMP JUMPDEST PUSH0 PUSH1 0x20 DUP3 ADD SWAP1 POP PUSH2 0x843 PUSH0 DUP4 ADD DUP5 PUSH2 0x821 JUMP JUMPDEST SWAP3 SWAP2 POP POP JUMP JUMPDEST PUSH2 0x852 DUP2 PUSH2 0x7B0 JUMP JUMPDEST DUP3 MSTORE POP POP JUMP JUMPDEST PUSH0 PUSH1 0x20 DUP3 ADD SWAP1 POP PUSH2 0x86B PUSH0 DUP4 ADD DUP5 PUSH2 0x849 JUMP JUMPDEST SWAP3 SWAP2 POP POP JUMP JUMPDEST PUSH0 DUP2 MLOAD SWAP1 POP SWAP2 SWAP1 POP JUMP JUMPDEST PUSH0 DUP3 DUP3 MSTORE PUSH1 0x20 DUP3 ADD SWAP1 POP SWAP3 SWAP2 POP POP JUMP JUMPDEST PUSH0 JUMPDEST DUP4 DUP2 LT ISZERO PUSH2 0x8A8 JUMPI DUP1 DUP3 ADD MLOAD DUP2 DUP5 ADD MSTORE PUSH1 0x20 DUP2 ADD SWAP1 POP PUSH2 0x88D JUMP JUMPDEST PUSH0 DUP5 DUP5 ADD MSTORE POP POP POP POP JUMP JUMPDEST PUSH0 PUSH1 0x1F NOT PUSH1 0x1F DUP4 ADD AND SWAP1 POP SWAP2 SWAP1 POP JUMP JUMPDEST PUSH0 PUSH2 0x8CD DUP3 PUSH2 0x871 JUMP JUMPDEST PUSH2 0x8D7 DUP2 DUP6 PUSH2 0x87B JUMP JUMPDEST SWAP4 POP PUSH2 0x8E7 DUP2 DUP6 PUSH1 0x20 DUP7 ADD PUSH2 0x88B JUMP JUMPDEST PUSH2 0x8F0 DUP2 PUSH2 0x8B3 JUMP JUMPDEST DUP5 ADD SWAP2 POP POP SWAP3 SWAP2 POP POP JUMP JUMPDEST PUSH2 0x904 DUP2 PUSH2 0x733 JUMP JUMPDEST DUP3 MSTORE POP POP JUMP JUMPDEST PUSH0 PUSH2 0x914 DUP3 PUSH2 0x791 JUMP JUMPDEST SWAP1 POP SWAP2 SWAP1 POP JUMP JUMPDEST PUSH2 0x924 DUP2 PUSH2 0x90A JUMP JUMPDEST DUP3 MSTORE POP POP JUMP JUMPDEST PUSH0 PUSH1 0xA0 DUP3 ADD SWAP1 POP DUP2 DUP2 SUB PUSH0 DUP4 ADD MSTORE PUSH2 0x942 DUP2 DUP9 PUSH2 0x8C3 JUMP JUMPDEST SWAP1 POP PUSH2 0x951 PUSH1 0x20 DUP4 ADD DUP8 PUSH2 0x8FB JUMP JUMPDEST PUSH2 0x95E PUSH1 0x40 DUP4 ADD DUP7 PUSH2 0x91B JUMP JUMPDEST PUSH2 0x96B PUSH1 0x60 DUP4 ADD DUP6 PUSH2 0x821 JUMP JUMPDEST PUSH2 0x978 PUSH1 0x80 DUP4 ADD DUP5 PUSH2 0x8FB JUMP JUMPDEST SWAP7 SWAP6 POP POP POP POP POP POP JUMP JUMPDEST PUSH0 PUSH1 0x20 DUP3 ADD SWAP1 POP PUSH2 0x995 PUSH0 DUP4 ADD DUP5 PUSH2 0x8FB JUMP JUMPDEST SWAP3 SWAP2 POP POP JUMP JUMPDEST PUSH0 DUP1 REVERT JUMPDEST PUSH0 DUP1 REVERT JUMPDEST PUSH32 0x4E487B7100000000000000000000000000000000000000000000000000000000 PUSH0 MSTORE PUSH1 0x41 PUSH1 0x4 MSTORE PUSH1 0x24 PUSH0 REVERT JUMPDEST PUSH2 0x9D9 DUP3 PUSH2 0x8B3 JUMP JUMPDEST DUP2 ADD DUP2 DUP2 LT PUSH8 0xFFFFFFFFFFFFFFFF DUP3 GT OR ISZERO PUSH2 0x9F8 JUMPI PUSH2 0x9F7 PUSH2 0x9A3 JUMP JUMPDEST JUMPDEST DUP1 PUSH1 0x40 MSTORE POP POP POP JUMP JUMPDEST PUSH0 PUSH2 0xA0A PUSH2 0x722 JUMP JUMPDEST SWAP1 POP PUSH2 0xA16 DUP3 DUP3 PUSH2 0x9D0 JUMP JUMPDEST SWAP2 SWAP1 POP JUMP JUMPDEST PUSH0 PUSH8 0xFFFFFFFFFFFFFFFF DUP3 GT ISZERO PUSH2 0xA35 JUMPI PUSH2 0xA34 PUSH2 0x9A3 JUMP JUMPDEST JUMPDEST PUSH2 0xA3E DUP3 PUSH2 0x8B3 JUMP JUMPDEST SWAP1 POP PUSH1 0x20 DUP2 ADD SWAP1 POP SWAP2 SWAP1 POP JUMP JUMPDEST DUP3 DUP2 DUP4 CALLDATACOPY PUSH0 DUP4 DUP4 ADD MSTORE POP POP POP JUMP JUMPDEST PUSH0 PUSH2 0xA6B PUSH2 0xA66 DUP5 PUSH2 0xA1B JUMP JUMPDEST PUSH2 0xA01 JUMP JUMPDEST SWAP1 POP DUP3 DUP2 MSTORE PUSH1 0x20 DUP2 ADD DUP5 DUP5 DUP5 ADD GT ISZERO PUSH2 0xA87 JUMPI PUSH2 0xA86 PUSH2 0x99F JUMP JUMPDEST JUMPDEST PUSH2 0xA92 DUP5 DUP3 DUP6 PUSH2 0xA4B JUMP JUMPDEST POP SWAP4 SWAP3 POP POP POP JUMP JUMPDEST PUSH0 DUP3 PUSH1 0x1F DUP4 ADD SLT PUSH2 0xAAE JUMPI PUSH2 0xAAD PUSH2 0x99B JUMP JUMPDEST JUMPDEST DUP2 CALLDATALOAD PUSH2 0xABE DUP5 DUP3 PUSH1 0x20 DUP7 ADD PUSH2 0xA59 JUMP JUMPDEST SWAP2 POP POP SWAP3 SWAP2 POP POP JUMP JUMPDEST PUSH0 DUP1 PUSH0 PUSH1 0x60 DUP5 DUP7 SUB SLT ISZERO PUSH2 0xADE JUMPI PUSH2 0xADD PUSH2 0x72B JUMP JUMPDEST JUMPDEST PUSH0 DUP5 ADD CALLDATALOAD PUSH8 0xFFFFFFFFFFFFFFFF DUP2 GT ISZERO PUSH2 0xAFB JUMPI PUSH2 0xAFA PUSH2 0x72F JUMP JUMPDEST JUMPDEST PUSH2 0xB07 DUP7 DUP3 DUP8 ADD PUSH2 0xA9A JUMP JUMPDEST SWAP4 POP POP PUSH1 0x20 PUSH2 0xB18 DUP7 DUP3 DUP8 ADD PUSH2 0x752 JUMP JUMPDEST SWAP3 POP POP PUSH1 0x40 PUSH2 0xB29 DUP7 DUP3 DUP8 ADD PUSH2 0x7D7 JUMP JUMPDEST SWAP2 POP POP SWAP3 POP SWAP3 POP SWAP3 JUMP JUMPDEST PUSH32 0x4E487B7100000000000000000000000000000000000000000000000000000000 PUSH0 MSTORE PUSH1 0x11 PUSH1 0x4 MSTORE PUSH1 0x24 PUSH0 REVERT JUMPDEST PUSH0 PUSH2 0xB6A DUP3 PUSH2 0x733 JUMP JUMPDEST SWAP2 POP PUSH32 0xFFFFFFFFFFFFFFFFFFFFFFFFFFFFFFFFFFFFFFFFFFFFFFFFFFFFFFFFFFFFFFFF DUP3 SUB PUSH2 0xB9C JUMPI PUSH2 0xB9B PUSH2 0xB33 JUMP JUMPDEST JUMPDEST PUSH1 0x1 DUP3 ADD SWAP1 POP SWAP2 SWAP1 POP JUMP JUMPDEST PUSH32 0x4E487B7100000000000000000000000000000000000000000000000000000000 PUSH0 MSTORE PUSH1 0x22 PUSH1 0x4 MSTORE PUSH1 0x24 PUSH0 REVERT JUMPDEST PUSH0 PUSH1 0x2 DUP3 DIV SWAP1 POP PUSH1 0x1 DUP3 AND DUP1 PUSH2 0xBEB JUMPI PUSH1 0x7F DUP3 AND SWAP2 POP JUMPDEST PUSH1 0x20 DUP3 LT DUP2 SUB PUSH2 0xBFE JUMPI PUSH2 0xBFD PUSH2 0xBA7 JUMP JUMPDEST JUMPDEST POP SWAP2 SWAP1 POP JUMP JUMPDEST PUSH0 DUP2 SWAP1 POP DUP2 PUSH0 MSTORE PUSH1 0x20 PUSH0 KECCAK256 SWAP1 POP SWAP2 SWAP1 POP JUMP JUMPDEST PUSH0 PUSH1 0x20 PUSH1 0x1F DUP4 ADD DIV SWAP1 POP SWAP2 SWAP1 POP JUMP JUMPDEST PUSH0 DUP3 DUP3 SHL SWAP1 POP SWAP3 SWAP2 POP POP JUMP JUMPDEST PUSH0 PUSH1 0x8 DUP4 MUL PUSH2 0xC60 PUSH32 0xFFFFFFFFFFFFFFFFFFFFFFFFFFFFFFFFFFFFFFFFFFFFFFFFFFFFFFFFFFFFFFFF DUP3 PUSH2 0xC25 JUMP JUMPDEST PUSH2 0xC6A DUP7 DUP4 PUSH2 0xC25 JUMP JUMPDEST SWAP6 POP DUP1 NOT DUP5 AND SWAP4 POP DUP1 DUP7 AND DUP5 OR SWAP3 POP POP POP SWAP4 SWAP3 POP POP POP JUMP JUMPDEST PUSH0 DUP2 SWAP1 POP SWAP2 SWAP1 POP JUMP JUMPDEST PUSH0 PUSH2 0xCA5 PUSH2 0xCA0 PUSH2 0xC9B DUP5 PUSH2 0x733 JUMP JUMPDEST PUSH2 0xC82 JUMP JUMPDEST PUSH2 0x733 JUMP JUMPDEST SWAP1 POP SWAP2 SWAP1 POP JUMP JUMPDEST PUSH0 DUP2 SWAP1 POP SWAP2 SWAP1 POP JUMP JUMPDEST PUSH2 0xCBE DUP4 PUSH2 0xC8B JUMP JUMPDEST PUSH2 0xCD2 PUSH2 0xCCA DUP3 PUSH2 0xCAC JUMP JUMPDEST DUP5 DUP5 SLOAD PUSH2 0xC31 JUMP JUMPDEST DUP3 SSTORE POP POP POP POP JUMP JUMPDEST PUSH0 SWAP1 JUMP JUMPDEST PUSH2 0xCE6 PUSH2 0xCDA JUMP JUMPDEST PUSH2 0xCF1 DUP2 DUP5 DUP5 PUSH2 0xCB5 JUMP JUMPDEST POP POP POP JUMP JUMPDEST JUMPDEST DUP2 DUP2 LT ISZERO PUSH2 0xD14 JUMPI PUSH2 0xD09 PUSH0 DUP3 PUSH2 0xCDE JUMP JUMPDEST PUSH1 0x1 DUP2 ADD SWAP1 POP PUSH2 0xCF7 JUMP JUMPDEST POP POP JUMP JUMPDEST PUSH1 0x1F DUP3 GT ISZERO PUSH2 0xD59 JUMPI PUSH2 0xD2A DUP2 PUSH2 0xC04 JUMP JUMPDEST PUSH2 0xD33 DUP5 PUSH2 0xC16 JUMP JUMPDEST DUP2 ADD PUSH1 0x20 DUP6 LT ISZERO PUSH2 0xD42 JUMPI DUP2 SWAP1 POP JUMPDEST PUSH2 0xD56 PUSH2 0xD4E DUP6 PUSH2 0xC16 JUMP JUMPDEST DUP4 ADD DUP3 PUSH2 0xCF6 JUMP JUMPDEST POP POP JUMPDEST POP POP POP JUMP JUMPDEST PUSH0 DUP3 DUP3 SHR SWAP1 POP SWAP3 SWAP2 POP POP JUMP JUMPDEST PUSH0 PUSH2 0xD79 PUSH0 NOT DUP5 PUSH1 0x8 MUL PUSH2 0xD5E JUMP JUMPDEST NOT DUP1 DUP4 AND SWAP2 POP POP SWAP3 SWAP2 POP POP JUMP JUMPDEST PUSH0 PUSH2 0xD91 DUP4 DUP4 PUSH2 0xD6A JUMP JUMPDEST SWAP2 POP DUP3 PUSH1 0x2 MUL DUP3 OR SWAP1 POP SWAP3 SWAP2 POP POP JUMP JUMPDEST PUSH2 0xDAA DUP3 PUSH2 0x871 JUMP JUMPDEST PUSH8 0xFFFFFFFFFFFFFFFF DUP2 GT ISZERO PUSH2 0xDC3 JUMPI PUSH2 0xDC2 PUSH2 0x9A3 JUMP JUMPDEST JUMPDEST PUSH2 0xDCD DUP3 SLOAD PUSH2 0xBD4 JUMP JUMPDEST PUSH2 0xDD8 DUP3 DUP3 DUP6 PUSH2 0xD18 JUMP JUMPDEST PUSH0 PUSH1 0x20 SWAP1 POP PUSH1 0x1F DUP4 GT PUSH1 0x1 DUP2 EQ PUSH2 0xE09 JUMPI PUSH0 DUP5 ISZERO PUSH2 0xDF7 JUMPI DUP3 DUP8 ADD MLOAD SWAP1 POP JUMPDEST PUSH2 0xE01 DUP6 DUP3 PUSH2 0xD86 JUMP JUMPDEST DUP7 SSTORE POP PUSH2 0xE68 JUMP JUMPDEST PUSH1 0x1F NOT DUP5 AND PUSH2 0xE17 DUP7 PUSH2 0xC04 JUMP JUMPDEST PUSH0 JUMPDEST DUP3 DUP2 LT ISZERO PUSH2 0xE3E JUMPI DUP5 DUP10 ADD MLOAD DUP3 SSTORE PUSH1 0x1 DUP3 ADD SWAP2 POP PUSH1 0x20 DUP6 ADD SWAP5 POP PUSH1 0x20 DUP2 ADD SWAP1 POP PUSH2 0xE19 JUMP JUMPDEST DUP7 DUP4 LT ISZERO PUSH2 0xE5B JUMPI DUP5 DUP10 ADD MLOAD PUSH2 0xE57 PUSH1 0x1F DUP10 AND DUP3 PUSH2 0xD6A JUMP JUMPDEST DUP4 SSTORE POP JUMPDEST PUSH1 0x1 PUSH1 0x2 DUP9 MUL ADD DUP9 SSTORE POP POP POP JUMPDEST POP POP POP POP POP POP JUMP JUMPDEST PUSH32 0x4E487B7100000000000000000000000000000000000000000000000000000000 PUSH0 MSTORE PUSH1 0x12 PUSH1 0x4 MSTORE PUSH1 0x24 PUSH0 REVERT JUMPDEST PUSH0 PUSH2 0xEA7 DUP3 PUSH2 0x733 JUMP JUMPDEST SWAP2 POP PUSH2 0xEB2 DUP4 PUSH2 0x733 JUMP JUMPDEST SWAP3 POP DUP3 PUSH2 0xEC2 JUMPI PUSH2 0xEC1 PUSH2 0xE70 JUMP JUMPDEST JUMPDEST DUP3 DUP3 DIV SWAP1 POP SWAP3 SWAP2 POP POP JUMP INVALID LOG2 PUSH5 0x6970667358 0x22 SLT KECCAK256 0xD ADDMOD 0xE3 PUSH21 0xFCA514A0EACA3FBB52DC3D963A0127CFF69557F949 SWAP5 0x22 0xA6 SLT 0xE0 0xEE CALLVALUE PUSH5 0x736F6C6343 STOP ADDMOD XOR STOP CALLER LOG2 PUSH5 0x6970667358 0x22 SLT KECCAK256 PUSH10 0x364A0E739DC040E95B7D COINBASE MOD REVERT DUP5 MOD SWAP1 0xED 0xE4 SDIV 0xD0 PUSH7 0xEC3DC52CFC262F 0xB1 0xC9 PUSH28 0x64736F6C634300081800330000000000000000000000000000000000 "},"gasEstimates":{"creation":{"codeDepositCost":"1051800","executionCost":"1092","totalCost":"1052892"},"external":{"createCampaign(uint256)":"infinite","createdCampaigns(uint256)":"4921","getCampaigns()":"infinite"}},"methodIdentifiers":{"createCampaign(uint256)":"a3303a75","createdCampaigns(uint256)":"6ffbea13","getCampaigns()":"a6b03633"}},"storageLayout":{"storage":[{"astId":4,"contract":"Campaign.sol:CampaignFactory","label":"createdCampaigns","offset":0,"slot":"0","type":"t_array(t_address)dyn_storage"}],"types":{"t_address":{"encoding":"inplace","label":"address","numberOfBytes":"20"},"t_array(t_address)dyn_storage":{"base":"t_address","encoding":"dynamic_array","label":"address[]","numberOfBytes":"32"}}},"userdoc":{"kind":"user","methods":{},"version":1}}